{
	"Votations/votations.sol": {
		"votation": {
			"abi": [
				{
					"inputs": [],
					"stateMutability": "nonpayable",
					"type": "constructor"
				},
				{
					"inputs": [
						{
							"internalType": "string",
							"name": "_name",
							"type": "string"
						},
						{
							"internalType": "uint256",
							"name": "_age",
							"type": "uint256"
						},
						{
							"internalType": "string",
							"name": "_id",
							"type": "string"
						}
					],
					"name": "Postulate",
					"outputs": [],
					"stateMutability": "nonpayable",
					"type": "function"
				},
				{
					"inputs": [
						{
							"internalType": "string",
							"name": "_candidate",
							"type": "string"
						}
					],
					"name": "Vote",
					"outputs": [],
					"stateMutability": "nonpayable",
					"type": "function"
				},
				{
					"inputs": [
						{
							"internalType": "string",
							"name": "_candidate",
							"type": "string"
						}
					],
					"name": "getVotes",
					"outputs": [
						{
							"internalType": "uint256",
							"name": "",
							"type": "uint256"
						}
					],
					"stateMutability": "view",
					"type": "function"
				},
				{
					"inputs": [],
					"name": "owner",
					"outputs": [
						{
							"internalType": "address",
							"name": "",
							"type": "address"
						}
					],
					"stateMutability": "view",
					"type": "function"
				},
				{
					"inputs": [],
					"name": "showCandidates",
					"outputs": [
						{
							"internalType": "string[]",
							"name": "",
							"type": "string[]"
						}
					],
					"stateMutability": "view",
					"type": "function"
				}
			],
			"devdoc": {
				"kind": "dev",
				"methods": {},
				"version": 1
			},
			"evm": {
				"assembly": "    /* \"Votations/votations.sol\":58:1612  contract votation{... */\n  mstore(0x40, 0x80)\n    /* \"Votations/votations.sol\":147:196  constructor (){... */\n  callvalue\n  dup1\n  iszero\n  tag_1\n  jumpi\n  0x00\n  dup1\n  revert\ntag_1:\n  pop\n    /* \"Votations/votations.sol\":179:189  msg.sender */\n  caller\n    /* \"Votations/votations.sol\":171:176  owner */\n  0x00\n  dup1\n    /* \"Votations/votations.sol\":171:189  owner = msg.sender */\n  0x0100\n  exp\n  dup2\n  sload\n  dup2\n  0xffffffffffffffffffffffffffffffffffffffff\n  mul\n  not\n  and\n  swap1\n  dup4\n  0xffffffffffffffffffffffffffffffffffffffff\n  and\n  mul\n  or\n  swap1\n  sstore\n  pop\n    /* \"Votations/votations.sol\":58:1612  contract votation{... */\n  dataSize(sub_0)\n  dup1\n  dataOffset(sub_0)\n  0x00\n  codecopy\n  0x00\n  return\nstop\n\nsub_0: assembly {\n        /* \"Votations/votations.sol\":58:1612  contract votation{... */\n      mstore(0x40, 0x80)\n      callvalue\n      dup1\n      iszero\n      tag_1\n      jumpi\n      0x00\n      dup1\n      revert\n    tag_1:\n      pop\n      jumpi(tag_2, lt(calldatasize, 0x04))\n      shr(0xe0, calldataload(0x00))\n      dup1\n      0x1d7b90e0\n      eq\n      tag_3\n      jumpi\n      dup1\n      0x323082d7\n      eq\n      tag_4\n      jumpi\n      dup1\n      0x805265e5\n      eq\n      tag_5\n      jumpi\n      dup1\n      0x8da5cb5b\n      eq\n      tag_6\n      jumpi\n      dup1\n      0xee34c533\n      eq\n      tag_7\n      jumpi\n    tag_2:\n      0x00\n      dup1\n      revert\n        /* \"Votations/votations.sol\":1356:1454  function showCandidates() external view returns(string[] memory){... */\n    tag_3:\n      tag_8\n      tag_9\n      jump\t// in\n    tag_8:\n      mload(0x40)\n      tag_10\n      swap2\n      swap1\n      tag_11\n      jump\t// in\n    tag_10:\n      mload(0x40)\n      dup1\n      swap2\n      sub\n      swap1\n      return\n        /* \"Votations/votations.sol\":1068:1322  function Vote(string memory _candidate) external{... */\n    tag_4:\n      tag_12\n      0x04\n      dup1\n      calldatasize\n      sub\n      dup2\n      add\n      swap1\n      tag_13\n      swap2\n      swap1\n      tag_14\n      jump\t// in\n    tag_13:\n      tag_15\n      jump\t// in\n    tag_12:\n      stop\n        /* \"Votations/votations.sol\":1486:1608  function getVotes(string memory _candidate) external view returns(uint){... */\n    tag_5:\n      tag_16\n      0x04\n      dup1\n      calldatasize\n      sub\n      dup2\n      add\n      swap1\n      tag_17\n      swap2\n      swap1\n      tag_14\n      jump\t// in\n    tag_17:\n      tag_18\n      jump\t// in\n    tag_16:\n      mload(0x40)\n      tag_19\n      swap2\n      swap1\n      tag_20\n      jump\t// in\n    tag_19:\n      mload(0x40)\n      dup1\n      swap2\n      sub\n      swap1\n      return\n        /* \"Votations/votations.sol\":102:122  address public owner */\n    tag_6:\n      tag_21\n      tag_22\n      jump\t// in\n    tag_21:\n      mload(0x40)\n      tag_23\n      swap2\n      swap1\n      tag_24\n      jump\t// in\n    tag_23:\n      mload(0x40)\n      dup1\n      swap2\n      sub\n      swap1\n      return\n        /* \"Votations/votations.sol\":541:733  function Postulate(string memory _name, uint _age, string memory _id) external{... */\n    tag_7:\n      tag_25\n      0x04\n      dup1\n      calldatasize\n      sub\n      dup2\n      add\n      swap1\n      tag_26\n      swap2\n      swap1\n      tag_27\n      jump\t// in\n    tag_26:\n      tag_28\n      jump\t// in\n    tag_25:\n      stop\n        /* \"Votations/votations.sol\":1356:1454  function showCandidates() external view returns(string[] memory){... */\n    tag_9:\n        /* \"Votations/votations.sol\":1404:1419  string[] memory */\n      0x60\n        /* \"Votations/votations.sol\":1437:1447  candidates */\n      0x03\n        /* \"Votations/votations.sol\":1430:1447  return candidates */\n      dup1\n      sload\n      dup1\n      0x20\n      mul\n      0x20\n      add\n      mload(0x40)\n      swap1\n      dup2\n      add\n      0x40\n      mstore\n      dup1\n      swap3\n      swap2\n      swap1\n      dup2\n      dup2\n      mstore\n      0x20\n      add\n      0x00\n      swap1\n    tag_30:\n      dup3\n      dup3\n      lt\n      iszero\n      tag_31\n      jumpi\n      dup4\n      dup3\n      swap1\n      0x00\n      mstore\n      keccak256(0x00, 0x20)\n      add\n      dup1\n      sload\n      tag_33\n      swap1\n      tag_34\n      jump\t// in\n    tag_33:\n      dup1\n      0x1f\n      add\n      0x20\n      dup1\n      swap2\n      div\n      mul\n      0x20\n      add\n      mload(0x40)\n      swap1\n      dup2\n      add\n      0x40\n      mstore\n      dup1\n      swap3\n      swap2\n      swap1\n      dup2\n      dup2\n      mstore\n      0x20\n      add\n      dup3\n      dup1\n      sload\n      tag_35\n      swap1\n      tag_34\n      jump\t// in\n    tag_35:\n      dup1\n      iszero\n      tag_36\n      jumpi\n      dup1\n      0x1f\n      lt\n      tag_37\n      jumpi\n      0x0100\n      dup1\n      dup4\n      sload\n      div\n      mul\n      dup4\n      mstore\n      swap2\n      0x20\n      add\n      swap2\n      jump(tag_36)\n    tag_37:\n      dup3\n      add\n      swap2\n      swap1\n      0x00\n      mstore\n      keccak256(0x00, 0x20)\n      swap1\n    tag_38:\n      dup2\n      sload\n      dup2\n      mstore\n      swap1\n      0x01\n      add\n      swap1\n      0x20\n      add\n      dup1\n      dup4\n      gt\n      tag_38\n      jumpi\n      dup3\n      swap1\n      sub\n      0x1f\n      and\n      dup3\n      add\n      swap2\n    tag_36:\n      pop\n      pop\n      pop\n      pop\n      pop\n      dup2\n      mstore\n      0x20\n      add\n      swap1\n      0x01\n      add\n      swap1\n      jump(tag_30)\n    tag_31:\n      pop\n      pop\n      pop\n      pop\n      swap1\n      pop\n        /* \"Votations/votations.sol\":1356:1454  function showCandidates() external view returns(string[] memory){... */\n      swap1\n      jump\t// out\n        /* \"Votations/votations.sol\":1068:1322  function Vote(string memory _candidate) external{... */\n    tag_15:\n        /* \"Votations/votations.sol\":1126:1144  bytes32 voter_Hash */\n      0x00\n        /* \"Votations/votations.sol\":1174:1184  msg.sender */\n      caller\n        /* \"Votations/votations.sol\":1157:1185  abi.encodePacked(msg.sender) */\n      add(0x20, mload(0x40))\n      tag_40\n      swap2\n      swap1\n      tag_41\n      jump\t// in\n    tag_40:\n      mload(0x40)\n      0x20\n      dup2\n      dup4\n      sub\n      sub\n      dup2\n      mstore\n      swap1\n      0x40\n      mstore\n        /* \"Votations/votations.sol\":1147:1186  keccak256(abi.encodePacked(msg.sender)) */\n      dup1\n      mload\n      swap1\n      0x20\n      add\n      keccak256\n        /* \"Votations/votations.sol\":1126:1186  bytes32 voter_Hash = keccak256(abi.encodePacked(msg.sender)) */\n      swap1\n      pop\n        /* \"Votations/votations.sol\":1205:1225  hasVoted(voter_Hash) */\n      tag_42\n        /* \"Votations/votations.sol\":1214:1224  voter_Hash */\n      dup2\n        /* \"Votations/votations.sol\":1205:1213  hasVoted */\n      tag_43\n        /* \"Votations/votations.sol\":1205:1225  hasVoted(voter_Hash) */\n      jump\t// in\n    tag_42:\n        /* \"Votations/votations.sol\":1204:1225  !hasVoted(voter_Hash) */\n      iszero\n        /* \"Votations/votations.sol\":1196:1243  require(!hasVoted(voter_Hash),\"Already voted!\") */\n      tag_44\n      jumpi\n      mload(0x40)\n      0x08c379a000000000000000000000000000000000000000000000000000000000\n      dup2\n      mstore\n      0x04\n      add\n      tag_45\n      swap1\n      tag_46\n      jump\t// in\n    tag_45:\n      mload(0x40)\n      dup1\n      swap2\n      sub\n      swap1\n      revert\n    tag_44:\n        /* \"Votations/votations.sol\":1253:1259  voters */\n      0x04\n        /* \"Votations/votations.sol\":1265:1275  voter_Hash */\n      dup2\n        /* \"Votations/votations.sol\":1253:1276  voters.push(voter_Hash) */\n      swap1\n      dup1\n      0x01\n      dup2\n      sload\n      add\n      dup1\n      dup3\n      sstore\n      dup1\n      swap2\n      pop\n      pop\n      0x01\n      swap1\n      sub\n      swap1\n      0x00\n      mstore\n      keccak256(0x00, 0x20)\n      add\n      0x00\n      swap1\n      swap2\n      swap1\n      swap2\n      swap1\n      swap2\n      pop\n      sstore\n        /* \"Votations/votations.sol\":1286:1301  candidate_Votes */\n      0x02\n        /* \"Votations/votations.sol\":1302:1312  _candidate */\n      dup3\n        /* \"Votations/votations.sol\":1286:1313  candidate_Votes[_candidate] */\n      mload(0x40)\n      tag_48\n      swap2\n      swap1\n      tag_49\n      jump\t// in\n    tag_48:\n      swap1\n      dup2\n      mstore\n      0x20\n      add\n      mload(0x40)\n      dup1\n      swap2\n      sub\n      swap1\n      keccak256\n      0x00\n        /* \"Votations/votations.sol\":1286:1315  candidate_Votes[_candidate]++ */\n      dup2\n      sload\n      dup1\n      swap3\n      swap2\n      swap1\n      tag_50\n      swap1\n      tag_51\n      jump\t// in\n    tag_50:\n      swap2\n      swap1\n      pop\n      sstore\n      pop\n        /* \"Votations/votations.sol\":1116:1322  {... */\n      pop\n        /* \"Votations/votations.sol\":1068:1322  function Vote(string memory _candidate) external{... */\n      pop\n      jump\t// out\n        /* \"Votations/votations.sol\":1486:1608  function getVotes(string memory _candidate) external view returns(uint){... */\n    tag_18:\n        /* \"Votations/votations.sol\":1552:1556  uint */\n      0x00\n        /* \"Votations/votations.sol\":1574:1589  candidate_Votes */\n      0x02\n        /* \"Votations/votations.sol\":1590:1600  _candidate */\n      dup3\n        /* \"Votations/votations.sol\":1574:1601  candidate_Votes[_candidate] */\n      mload(0x40)\n      tag_53\n      swap2\n      swap1\n      tag_49\n      jump\t// in\n    tag_53:\n      swap1\n      dup2\n      mstore\n      0x20\n      add\n      mload(0x40)\n      dup1\n      swap2\n      sub\n      swap1\n      keccak256\n      sload\n        /* \"Votations/votations.sol\":1567:1601  return candidate_Votes[_candidate] */\n      swap1\n      pop\n        /* \"Votations/votations.sol\":1486:1608  function getVotes(string memory _candidate) external view returns(uint){... */\n      swap2\n      swap1\n      pop\n      jump\t// out\n        /* \"Votations/votations.sol\":102:122  address public owner */\n    tag_22:\n      0x00\n      dup1\n      sload\n      swap1\n      0x0100\n      exp\n      swap1\n      div\n      0xffffffffffffffffffffffffffffffffffffffff\n      and\n      dup2\n      jump\t// out\n        /* \"Votations/votations.sol\":541:733  function Postulate(string memory _name, uint _age, string memory _id) external{... */\n    tag_28:\n        /* \"Votations/votations.sol\":678:683  _name */\n      dup3\n        /* \"Votations/votations.sol\":684:688  _age */\n      dup3\n        /* \"Votations/votations.sol\":689:692  _id */\n      dup3\n        /* \"Votations/votations.sol\":661:693  abi.encodePacked(_name,_age,_id) */\n      add(0x20, mload(0x40))\n      tag_55\n      swap4\n      swap3\n      swap2\n      swap1\n      tag_56\n      jump\t// in\n    tag_55:\n      mload(0x40)\n      0x20\n      dup2\n      dup4\n      sub\n      sub\n      dup2\n      mstore\n      swap1\n      0x40\n      mstore\n        /* \"Votations/votations.sol\":651:694  keccak256(abi.encodePacked(_name,_age,_id)) */\n      dup1\n      mload\n      swap1\n      0x20\n      add\n      keccak256\n        /* \"Votations/votations.sol\":629:641  id_Candidate */\n      0x01\n        /* \"Votations/votations.sol\":642:647  _name */\n      dup5\n        /* \"Votations/votations.sol\":629:648  id_Candidate[_name] */\n      mload(0x40)\n      tag_57\n      swap2\n      swap1\n      tag_49\n      jump\t// in\n    tag_57:\n      swap1\n      dup2\n      mstore\n      0x20\n      add\n      mload(0x40)\n      dup1\n      swap2\n      sub\n      swap1\n      keccak256\n        /* \"Votations/votations.sol\":629:694  id_Candidate[_name] = keccak256(abi.encodePacked(_name,_age,_id)) */\n      dup2\n      swap1\n      sstore\n      pop\n        /* \"Votations/votations.sol\":704:714  candidates */\n      0x03\n        /* \"Votations/votations.sol\":720:725  _name */\n      dup4\n        /* \"Votations/votations.sol\":704:726  candidates.push(_name) */\n      swap1\n      dup1\n      0x01\n      dup2\n      sload\n      add\n      dup1\n      dup3\n      sstore\n      dup1\n      swap2\n      pop\n      pop\n      0x01\n      swap1\n      sub\n      swap1\n      0x00\n      mstore\n      keccak256(0x00, 0x20)\n      add\n      0x00\n      swap1\n      swap2\n      swap1\n      swap2\n      swap1\n      swap2\n      pop\n      swap1\n      dup2\n      tag_59\n      swap2\n      swap1\n      tag_60\n      jump\t// in\n    tag_59:\n      pop\n        /* \"Votations/votations.sol\":541:733  function Postulate(string memory _name, uint _age, string memory _id) external{... */\n      pop\n      pop\n      pop\n      jump\t// out\n        /* \"Votations/votations.sol\":739:1024  function hasVoted(bytes32 voter_Hash) private view returns (bool){... */\n    tag_43:\n        /* \"Votations/votations.sol\":799:803  bool */\n      0x00\n        /* \"Votations/votations.sol\":814:820  uint i */\n      dup1\n        /* \"Votations/votations.sol\":823:824  0 */\n      0x00\n        /* \"Votations/votations.sol\":814:824  uint i = 0 */\n      swap1\n      pop\n        /* \"Votations/votations.sol\":834:843  bool flag */\n      0x00\n        /* \"Votations/votations.sol\":861:997  while(i<voters.length && flag == false){... */\n    tag_62:\n        /* \"Votations/votations.sol\":869:875  voters */\n      0x04\n        /* \"Votations/votations.sol\":869:882  voters.length */\n      dup1\n      sload\n      swap1\n      pop\n        /* \"Votations/votations.sol\":867:868  i */\n      dup3\n        /* \"Votations/votations.sol\":867:882  i<voters.length */\n      lt\n        /* \"Votations/votations.sol\":867:899  i<voters.length && flag == false */\n      dup1\n      iszero\n      tag_64\n      jumpi\n      pop\n        /* \"Votations/votations.sol\":894:899  false */\n      0x00\n        /* \"Votations/votations.sol\":886:899  flag == false */\n      iszero\n      iszero\n        /* \"Votations/votations.sol\":886:890  flag */\n      dup2\n        /* \"Votations/votations.sol\":886:899  flag == false */\n      iszero\n      iszero\n      eq\n        /* \"Votations/votations.sol\":867:899  i<voters.length && flag == false */\n    tag_64:\n        /* \"Votations/votations.sol\":861:997  while(i<voters.length && flag == false){... */\n      iszero\n      tag_63\n      jumpi\n        /* \"Votations/votations.sol\":931:937  voters */\n      0x04\n        /* \"Votations/votations.sol\":938:939  i */\n      dup3\n        /* \"Votations/votations.sol\":931:940  voters[i] */\n      dup2\n      sload\n      dup2\n      lt\n      tag_65\n      jumpi\n      tag_66\n      tag_67\n      jump\t// in\n    tag_66:\n    tag_65:\n      swap1\n      0x00\n      mstore\n      keccak256(0x00, 0x20)\n      add\n      sload\n        /* \"Votations/votations.sol\":917:927  voter_Hash */\n      dup5\n        /* \"Votations/votations.sol\":917:940  voter_Hash == voters[i] */\n      sub\n        /* \"Votations/votations.sol\":914:969  if(voter_Hash == voters[i])... */\n      tag_69\n      jumpi\n        /* \"Votations/votations.sol\":965:969  true */\n      0x01\n        /* \"Votations/votations.sol\":958:969  flag = true */\n      swap1\n      pop\n        /* \"Votations/votations.sol\":914:969  if(voter_Hash == voters[i])... */\n    tag_69:\n        /* \"Votations/votations.sol\":983:986  i++ */\n      dup2\n      dup1\n      tag_70\n      swap1\n      tag_51\n      jump\t// in\n    tag_70:\n      swap3\n      pop\n      pop\n        /* \"Votations/votations.sol\":861:997  while(i<voters.length && flag == false){... */\n      jump(tag_62)\n    tag_63:\n        /* \"Votations/votations.sol\":1013:1017  flag */\n      dup1\n        /* \"Votations/votations.sol\":1006:1017  return flag */\n      swap3\n      pop\n      pop\n      pop\n        /* \"Votations/votations.sol\":739:1024  function hasVoted(bytes32 voter_Hash) private view returns (bool){... */\n      swap2\n      swap1\n      pop\n      jump\t// out\n        /* \"#utility.yul\":7:131   */\n    tag_71:\n        /* \"#utility.yul\":84:90   */\n      0x00\n        /* \"#utility.yul\":118:123   */\n      dup2\n        /* \"#utility.yul\":112:124   */\n      mload\n        /* \"#utility.yul\":102:124   */\n      swap1\n      pop\n        /* \"#utility.yul\":7:131   */\n      swap2\n      swap1\n      pop\n      jump\t// out\n        /* \"#utility.yul\":137:331   */\n    tag_72:\n        /* \"#utility.yul\":246:257   */\n      0x00\n        /* \"#utility.yul\":280:286   */\n      dup3\n        /* \"#utility.yul\":275:278   */\n      dup3\n        /* \"#utility.yul\":268:287   */\n      mstore\n        /* \"#utility.yul\":320:324   */\n      0x20\n        /* \"#utility.yul\":315:318   */\n      dup3\n        /* \"#utility.yul\":311:325   */\n      add\n        /* \"#utility.yul\":296:325   */\n      swap1\n      pop\n        /* \"#utility.yul\":137:331   */\n      swap3\n      swap2\n      pop\n      pop\n      jump\t// out\n        /* \"#utility.yul\":337:479   */\n    tag_73:\n        /* \"#utility.yul\":414:418   */\n      0x00\n        /* \"#utility.yul\":437:440   */\n      dup2\n        /* \"#utility.yul\":429:440   */\n      swap1\n      pop\n        /* \"#utility.yul\":467:471   */\n      0x20\n        /* \"#utility.yul\":462:465   */\n      dup3\n        /* \"#utility.yul\":458:472   */\n      add\n        /* \"#utility.yul\":450:472   */\n      swap1\n      pop\n        /* \"#utility.yul\":337:479   */\n      swap2\n      swap1\n      pop\n      jump\t// out\n        /* \"#utility.yul\":485:584   */\n    tag_74:\n        /* \"#utility.yul\":537:543   */\n      0x00\n        /* \"#utility.yul\":571:576   */\n      dup2\n        /* \"#utility.yul\":565:577   */\n      mload\n        /* \"#utility.yul\":555:577   */\n      swap1\n      pop\n        /* \"#utility.yul\":485:584   */\n      swap2\n      swap1\n      pop\n      jump\t// out\n        /* \"#utility.yul\":590:749   */\n    tag_75:\n        /* \"#utility.yul\":664:675   */\n      0x00\n        /* \"#utility.yul\":698:704   */\n      dup3\n        /* \"#utility.yul\":693:696   */\n      dup3\n        /* \"#utility.yul\":686:705   */\n      mstore\n        /* \"#utility.yul\":738:742   */\n      0x20\n        /* \"#utility.yul\":733:736   */\n      dup3\n        /* \"#utility.yul\":729:743   */\n      add\n        /* \"#utility.yul\":714:743   */\n      swap1\n      pop\n        /* \"#utility.yul\":590:749   */\n      swap3\n      swap2\n      pop\n      pop\n      jump\t// out\n        /* \"#utility.yul\":755:1001   */\n    tag_76:\n        /* \"#utility.yul\":836:837   */\n      0x00\n        /* \"#utility.yul\":846:959   */\n    tag_136:\n        /* \"#utility.yul\":860:866   */\n      dup4\n        /* \"#utility.yul\":857:858   */\n      dup2\n        /* \"#utility.yul\":854:867   */\n      lt\n        /* \"#utility.yul\":846:959   */\n      iszero\n      tag_138\n      jumpi\n        /* \"#utility.yul\":945:946   */\n      dup1\n        /* \"#utility.yul\":940:943   */\n      dup3\n        /* \"#utility.yul\":936:947   */\n      add\n        /* \"#utility.yul\":930:948   */\n      mload\n        /* \"#utility.yul\":926:927   */\n      dup2\n        /* \"#utility.yul\":921:924   */\n      dup5\n        /* \"#utility.yul\":917:928   */\n      add\n        /* \"#utility.yul\":910:949   */\n      mstore\n        /* \"#utility.yul\":882:884   */\n      0x20\n        /* \"#utility.yul\":879:880   */\n      dup2\n        /* \"#utility.yul\":875:885   */\n      add\n        /* \"#utility.yul\":870:885   */\n      swap1\n      pop\n        /* \"#utility.yul\":846:959   */\n      jump(tag_136)\n    tag_138:\n        /* \"#utility.yul\":993:994   */\n      0x00\n        /* \"#utility.yul\":984:990   */\n      dup5\n        /* \"#utility.yul\":979:982   */\n      dup5\n        /* \"#utility.yul\":975:991   */\n      add\n        /* \"#utility.yul\":968:995   */\n      mstore\n        /* \"#utility.yul\":817:1001   */\n      pop\n        /* \"#utility.yul\":755:1001   */\n      pop\n      pop\n      pop\n      jump\t// out\n        /* \"#utility.yul\":1007:1109   */\n    tag_77:\n        /* \"#utility.yul\":1048:1054   */\n      0x00\n        /* \"#utility.yul\":1099:1101   */\n      0x1f\n        /* \"#utility.yul\":1095:1102   */\n      not\n        /* \"#utility.yul\":1090:1092   */\n      0x1f\n        /* \"#utility.yul\":1083:1088   */\n      dup4\n        /* \"#utility.yul\":1079:1093   */\n      add\n        /* \"#utility.yul\":1075:1103   */\n      and\n        /* \"#utility.yul\":1065:1103   */\n      swap1\n      pop\n        /* \"#utility.yul\":1007:1109   */\n      swap2\n      swap1\n      pop\n      jump\t// out\n        /* \"#utility.yul\":1115:1472   */\n    tag_78:\n        /* \"#utility.yul\":1193:1196   */\n      0x00\n        /* \"#utility.yul\":1221:1260   */\n      tag_141\n        /* \"#utility.yul\":1254:1259   */\n      dup3\n        /* \"#utility.yul\":1221:1260   */\n      tag_74\n      jump\t// in\n    tag_141:\n        /* \"#utility.yul\":1276:1337   */\n      tag_142\n        /* \"#utility.yul\":1330:1336   */\n      dup2\n        /* \"#utility.yul\":1325:1328   */\n      dup6\n        /* \"#utility.yul\":1276:1337   */\n      tag_75\n      jump\t// in\n    tag_142:\n        /* \"#utility.yul\":1269:1337   */\n      swap4\n      pop\n        /* \"#utility.yul\":1346:1411   */\n      tag_143\n        /* \"#utility.yul\":1404:1410   */\n      dup2\n        /* \"#utility.yul\":1399:1402   */\n      dup6\n        /* \"#utility.yul\":1392:1396   */\n      0x20\n        /* \"#utility.yul\":1385:1390   */\n      dup7\n        /* \"#utility.yul\":1381:1397   */\n      add\n        /* \"#utility.yul\":1346:1411   */\n      tag_76\n      jump\t// in\n    tag_143:\n        /* \"#utility.yul\":1436:1465   */\n      tag_144\n        /* \"#utility.yul\":1458:1464   */\n      dup2\n        /* \"#utility.yul\":1436:1465   */\n      tag_77\n      jump\t// in\n    tag_144:\n        /* \"#utility.yul\":1431:1434   */\n      dup5\n        /* \"#utility.yul\":1427:1466   */\n      add\n        /* \"#utility.yul\":1420:1466   */\n      swap2\n      pop\n        /* \"#utility.yul\":1197:1472   */\n      pop\n        /* \"#utility.yul\":1115:1472   */\n      swap3\n      swap2\n      pop\n      pop\n      jump\t// out\n        /* \"#utility.yul\":1478:1674   */\n    tag_79:\n        /* \"#utility.yul\":1567:1577   */\n      0x00\n        /* \"#utility.yul\":1602:1668   */\n      tag_146\n        /* \"#utility.yul\":1664:1667   */\n      dup4\n        /* \"#utility.yul\":1656:1662   */\n      dup4\n        /* \"#utility.yul\":1602:1668   */\n      tag_78\n      jump\t// in\n    tag_146:\n        /* \"#utility.yul\":1588:1668   */\n      swap1\n      pop\n        /* \"#utility.yul\":1478:1674   */\n      swap3\n      swap2\n      pop\n      pop\n      jump\t// out\n        /* \"#utility.yul\":1680:1803   */\n    tag_80:\n        /* \"#utility.yul\":1760:1764   */\n      0x00\n        /* \"#utility.yul\":1792:1796   */\n      0x20\n        /* \"#utility.yul\":1787:1790   */\n      dup3\n        /* \"#utility.yul\":1783:1797   */\n      add\n        /* \"#utility.yul\":1775:1797   */\n      swap1\n      pop\n        /* \"#utility.yul\":1680:1803   */\n      swap2\n      swap1\n      pop\n      jump\t// out\n        /* \"#utility.yul\":1837:2828   */\n    tag_81:\n        /* \"#utility.yul\":1976:1979   */\n      0x00\n        /* \"#utility.yul\":2005:2069   */\n      tag_149\n        /* \"#utility.yul\":2063:2068   */\n      dup3\n        /* \"#utility.yul\":2005:2069   */\n      tag_71\n      jump\t// in\n    tag_149:\n        /* \"#utility.yul\":2085:2181   */\n      tag_150\n        /* \"#utility.yul\":2174:2180   */\n      dup2\n        /* \"#utility.yul\":2169:2172   */\n      dup6\n        /* \"#utility.yul\":2085:2181   */\n      tag_72\n      jump\t// in\n    tag_150:\n        /* \"#utility.yul\":2078:2181   */\n      swap4\n      pop\n        /* \"#utility.yul\":2207:2210   */\n      dup4\n        /* \"#utility.yul\":2252:2256   */\n      0x20\n        /* \"#utility.yul\":2244:2250   */\n      dup3\n        /* \"#utility.yul\":2240:2257   */\n      mul\n        /* \"#utility.yul\":2235:2238   */\n      dup6\n        /* \"#utility.yul\":2231:2258   */\n      add\n        /* \"#utility.yul\":2282:2348   */\n      tag_151\n        /* \"#utility.yul\":2342:2347   */\n      dup6\n        /* \"#utility.yul\":2282:2348   */\n      tag_73\n      jump\t// in\n    tag_151:\n        /* \"#utility.yul\":2371:2378   */\n      dup1\n        /* \"#utility.yul\":2402:2403   */\n      0x00\n        /* \"#utility.yul\":2387:2783   */\n    tag_152:\n        /* \"#utility.yul\":2412:2418   */\n      dup6\n        /* \"#utility.yul\":2409:2410   */\n      dup2\n        /* \"#utility.yul\":2406:2419   */\n      lt\n        /* \"#utility.yul\":2387:2783   */\n      iszero\n      tag_154\n      jumpi\n        /* \"#utility.yul\":2483:2492   */\n      dup5\n        /* \"#utility.yul\":2477:2481   */\n      dup5\n        /* \"#utility.yul\":2473:2493   */\n      sub\n        /* \"#utility.yul\":2468:2471   */\n      dup10\n        /* \"#utility.yul\":2461:2494   */\n      mstore\n        /* \"#utility.yul\":2534:2540   */\n      dup2\n        /* \"#utility.yul\":2528:2541   */\n      mload\n        /* \"#utility.yul\":2562:2646   */\n      tag_155\n        /* \"#utility.yul\":2641:2645   */\n      dup6\n        /* \"#utility.yul\":2626:2639   */\n      dup3\n        /* \"#utility.yul\":2562:2646   */\n      tag_79\n      jump\t// in\n    tag_155:\n        /* \"#utility.yul\":2554:2646   */\n      swap5\n      pop\n        /* \"#utility.yul\":2669:2739   */\n      tag_156\n        /* \"#utility.yul\":2732:2738   */\n      dup4\n        /* \"#utility.yul\":2669:2739   */\n      tag_80\n      jump\t// in\n    tag_156:\n        /* \"#utility.yul\":2659:2739   */\n      swap3\n      pop\n        /* \"#utility.yul\":2768:2772   */\n      0x20\n        /* \"#utility.yul\":2763:2766   */\n      dup11\n        /* \"#utility.yul\":2759:2773   */\n      add\n        /* \"#utility.yul\":2752:2773   */\n      swap10\n      pop\n        /* \"#utility.yul\":2447:2783   */\n      pop\n        /* \"#utility.yul\":2434:2435   */\n      0x01\n        /* \"#utility.yul\":2431:2432   */\n      dup2\n        /* \"#utility.yul\":2427:2436   */\n      add\n        /* \"#utility.yul\":2422:2436   */\n      swap1\n      pop\n        /* \"#utility.yul\":2387:2783   */\n      jump(tag_152)\n    tag_154:\n        /* \"#utility.yul\":2391:2405   */\n      pop\n        /* \"#utility.yul\":2799:2803   */\n      dup3\n        /* \"#utility.yul\":2792:2803   */\n      swap8\n      pop\n        /* \"#utility.yul\":2819:2822   */\n      dup8\n        /* \"#utility.yul\":2812:2822   */\n      swap6\n      pop\n        /* \"#utility.yul\":1981:2828   */\n      pop\n      pop\n      pop\n      pop\n      pop\n        /* \"#utility.yul\":1837:2828   */\n      swap3\n      swap2\n      pop\n      pop\n      jump\t// out\n        /* \"#utility.yul\":2834:3247   */\n    tag_11:\n        /* \"#utility.yul\":2997:3001   */\n      0x00\n        /* \"#utility.yul\":3035:3037   */\n      0x20\n        /* \"#utility.yul\":3024:3033   */\n      dup3\n        /* \"#utility.yul\":3020:3038   */\n      add\n        /* \"#utility.yul\":3012:3038   */\n      swap1\n      pop\n        /* \"#utility.yul\":3084:3093   */\n      dup2\n        /* \"#utility.yul\":3078:3082   */\n      dup2\n        /* \"#utility.yul\":3074:3094   */\n      sub\n        /* \"#utility.yul\":3070:3071   */\n      0x00\n        /* \"#utility.yul\":3059:3068   */\n      dup4\n        /* \"#utility.yul\":3055:3072   */\n      add\n        /* \"#utility.yul\":3048:3095   */\n      mstore\n        /* \"#utility.yul\":3112:3240   */\n      tag_158\n        /* \"#utility.yul\":3235:3239   */\n      dup2\n        /* \"#utility.yul\":3226:3232   */\n      dup5\n        /* \"#utility.yul\":3112:3240   */\n      tag_81\n      jump\t// in\n    tag_158:\n        /* \"#utility.yul\":3104:3240   */\n      swap1\n      pop\n        /* \"#utility.yul\":2834:3247   */\n      swap3\n      swap2\n      pop\n      pop\n      jump\t// out\n        /* \"#utility.yul\":3253:3328   */\n    tag_82:\n        /* \"#utility.yul\":3286:3292   */\n      0x00\n        /* \"#utility.yul\":3319:3321   */\n      0x40\n        /* \"#utility.yul\":3313:3322   */\n      mload\n        /* \"#utility.yul\":3303:3322   */\n      swap1\n      pop\n        /* \"#utility.yul\":3253:3328   */\n      swap1\n      jump\t// out\n        /* \"#utility.yul\":3334:3451   */\n    tag_83:\n        /* \"#utility.yul\":3443:3444   */\n      0x00\n        /* \"#utility.yul\":3440:3441   */\n      dup1\n        /* \"#utility.yul\":3433:3445   */\n      revert\n        /* \"#utility.yul\":3457:3574   */\n    tag_84:\n        /* \"#utility.yul\":3566:3567   */\n      0x00\n        /* \"#utility.yul\":3563:3564   */\n      dup1\n        /* \"#utility.yul\":3556:3568   */\n      revert\n        /* \"#utility.yul\":3580:3697   */\n    tag_85:\n        /* \"#utility.yul\":3689:3690   */\n      0x00\n        /* \"#utility.yul\":3686:3687   */\n      dup1\n        /* \"#utility.yul\":3679:3691   */\n      revert\n        /* \"#utility.yul\":3703:3820   */\n    tag_86:\n        /* \"#utility.yul\":3812:3813   */\n      0x00\n        /* \"#utility.yul\":3809:3810   */\n      dup1\n        /* \"#utility.yul\":3802:3814   */\n      revert\n        /* \"#utility.yul\":3826:4006   */\n    tag_87:\n        /* \"#utility.yul\":3874:3951   */\n      0x4e487b7100000000000000000000000000000000000000000000000000000000\n        /* \"#utility.yul\":3871:3872   */\n      0x00\n        /* \"#utility.yul\":3864:3952   */\n      mstore\n        /* \"#utility.yul\":3971:3975   */\n      0x41\n        /* \"#utility.yul\":3968:3969   */\n      0x04\n        /* \"#utility.yul\":3961:3976   */\n      mstore\n        /* \"#utility.yul\":3995:3999   */\n      0x24\n        /* \"#utility.yul\":3992:3993   */\n      0x00\n        /* \"#utility.yul\":3985:4000   */\n      revert\n        /* \"#utility.yul\":4012:4293   */\n    tag_88:\n        /* \"#utility.yul\":4095:4122   */\n      tag_166\n        /* \"#utility.yul\":4117:4121   */\n      dup3\n        /* \"#utility.yul\":4095:4122   */\n      tag_77\n      jump\t// in\n    tag_166:\n        /* \"#utility.yul\":4087:4093   */\n      dup2\n        /* \"#utility.yul\":4083:4123   */\n      add\n        /* \"#utility.yul\":4225:4231   */\n      dup2\n        /* \"#utility.yul\":4213:4223   */\n      dup2\n        /* \"#utility.yul\":4210:4232   */\n      lt\n        /* \"#utility.yul\":4189:4207   */\n      0xffffffffffffffff\n        /* \"#utility.yul\":4177:4187   */\n      dup3\n        /* \"#utility.yul\":4174:4208   */\n      gt\n        /* \"#utility.yul\":4171:4233   */\n      or\n        /* \"#utility.yul\":4168:4256   */\n      iszero\n      tag_167\n      jumpi\n        /* \"#utility.yul\":4236:4254   */\n      tag_168\n      tag_87\n      jump\t// in\n    tag_168:\n        /* \"#utility.yul\":4168:4256   */\n    tag_167:\n        /* \"#utility.yul\":4276:4286   */\n      dup1\n        /* \"#utility.yul\":4272:4274   */\n      0x40\n        /* \"#utility.yul\":4265:4287   */\n      mstore\n        /* \"#utility.yul\":4055:4293   */\n      pop\n        /* \"#utility.yul\":4012:4293   */\n      pop\n      pop\n      jump\t// out\n        /* \"#utility.yul\":4299:4428   */\n    tag_89:\n        /* \"#utility.yul\":4333:4339   */\n      0x00\n        /* \"#utility.yul\":4360:4380   */\n      tag_170\n      tag_82\n      jump\t// in\n    tag_170:\n        /* \"#utility.yul\":4350:4380   */\n      swap1\n      pop\n        /* \"#utility.yul\":4389:4422   */\n      tag_171\n        /* \"#utility.yul\":4417:4421   */\n      dup3\n        /* \"#utility.yul\":4409:4415   */\n      dup3\n        /* \"#utility.yul\":4389:4422   */\n      tag_88\n      jump\t// in\n    tag_171:\n        /* \"#utility.yul\":4299:4428   */\n      swap2\n      swap1\n      pop\n      jump\t// out\n        /* \"#utility.yul\":4434:4742   */\n    tag_90:\n        /* \"#utility.yul\":4496:4500   */\n      0x00\n        /* \"#utility.yul\":4586:4604   */\n      0xffffffffffffffff\n        /* \"#utility.yul\":4578:4584   */\n      dup3\n        /* \"#utility.yul\":4575:4605   */\n      gt\n        /* \"#utility.yul\":4572:4628   */\n      iszero\n      tag_173\n      jumpi\n        /* \"#utility.yul\":4608:4626   */\n      tag_174\n      tag_87\n      jump\t// in\n    tag_174:\n        /* \"#utility.yul\":4572:4628   */\n    tag_173:\n        /* \"#utility.yul\":4646:4675   */\n      tag_175\n        /* \"#utility.yul\":4668:4674   */\n      dup3\n        /* \"#utility.yul\":4646:4675   */\n      tag_77\n      jump\t// in\n    tag_175:\n        /* \"#utility.yul\":4638:4675   */\n      swap1\n      pop\n        /* \"#utility.yul\":4730:4734   */\n      0x20\n        /* \"#utility.yul\":4724:4728   */\n      dup2\n        /* \"#utility.yul\":4720:4735   */\n      add\n        /* \"#utility.yul\":4712:4735   */\n      swap1\n      pop\n        /* \"#utility.yul\":4434:4742   */\n      swap2\n      swap1\n      pop\n      jump\t// out\n        /* \"#utility.yul\":4748:4894   */\n    tag_91:\n        /* \"#utility.yul\":4845:4851   */\n      dup3\n        /* \"#utility.yul\":4840:4843   */\n      dup2\n        /* \"#utility.yul\":4835:4838   */\n      dup4\n        /* \"#utility.yul\":4822:4852   */\n      calldatacopy\n        /* \"#utility.yul\":4886:4887   */\n      0x00\n        /* \"#utility.yul\":4877:4883   */\n      dup4\n        /* \"#utility.yul\":4872:4875   */\n      dup4\n        /* \"#utility.yul\":4868:4884   */\n      add\n        /* \"#utility.yul\":4861:4888   */\n      mstore\n        /* \"#utility.yul\":4748:4894   */\n      pop\n      pop\n      pop\n      jump\t// out\n        /* \"#utility.yul\":4900:5325   */\n    tag_92:\n        /* \"#utility.yul\":4978:4983   */\n      0x00\n        /* \"#utility.yul\":5003:5069   */\n      tag_178\n        /* \"#utility.yul\":5019:5068   */\n      tag_179\n        /* \"#utility.yul\":5061:5067   */\n      dup5\n        /* \"#utility.yul\":5019:5068   */\n      tag_90\n      jump\t// in\n    tag_179:\n        /* \"#utility.yul\":5003:5069   */\n      tag_89\n      jump\t// in\n    tag_178:\n        /* \"#utility.yul\":4994:5069   */\n      swap1\n      pop\n        /* \"#utility.yul\":5092:5098   */\n      dup3\n        /* \"#utility.yul\":5085:5090   */\n      dup2\n        /* \"#utility.yul\":5078:5099   */\n      mstore\n        /* \"#utility.yul\":5130:5134   */\n      0x20\n        /* \"#utility.yul\":5123:5128   */\n      dup2\n        /* \"#utility.yul\":5119:5135   */\n      add\n        /* \"#utility.yul\":5168:5171   */\n      dup5\n        /* \"#utility.yul\":5159:5165   */\n      dup5\n        /* \"#utility.yul\":5154:5157   */\n      dup5\n        /* \"#utility.yul\":5150:5166   */\n      add\n        /* \"#utility.yul\":5147:5172   */\n      gt\n        /* \"#utility.yul\":5144:5256   */\n      iszero\n      tag_180\n      jumpi\n        /* \"#utility.yul\":5175:5254   */\n      tag_181\n      tag_86\n      jump\t// in\n    tag_181:\n        /* \"#utility.yul\":5144:5256   */\n    tag_180:\n        /* \"#utility.yul\":5265:5319   */\n      tag_182\n        /* \"#utility.yul\":5312:5318   */\n      dup5\n        /* \"#utility.yul\":5307:5310   */\n      dup3\n        /* \"#utility.yul\":5302:5305   */\n      dup6\n        /* \"#utility.yul\":5265:5319   */\n      tag_91\n      jump\t// in\n    tag_182:\n        /* \"#utility.yul\":4984:5325   */\n      pop\n        /* \"#utility.yul\":4900:5325   */\n      swap4\n      swap3\n      pop\n      pop\n      pop\n      jump\t// out\n        /* \"#utility.yul\":5345:5685   */\n    tag_93:\n        /* \"#utility.yul\":5401:5406   */\n      0x00\n        /* \"#utility.yul\":5450:5453   */\n      dup3\n        /* \"#utility.yul\":5443:5447   */\n      0x1f\n        /* \"#utility.yul\":5435:5441   */\n      dup4\n        /* \"#utility.yul\":5431:5448   */\n      add\n        /* \"#utility.yul\":5427:5454   */\n      slt\n        /* \"#utility.yul\":5417:5539   */\n      tag_184\n      jumpi\n        /* \"#utility.yul\":5458:5537   */\n      tag_185\n      tag_85\n      jump\t// in\n    tag_185:\n        /* \"#utility.yul\":5417:5539   */\n    tag_184:\n        /* \"#utility.yul\":5575:5581   */\n      dup2\n        /* \"#utility.yul\":5562:5582   */\n      calldataload\n        /* \"#utility.yul\":5600:5679   */\n      tag_186\n        /* \"#utility.yul\":5675:5678   */\n      dup5\n        /* \"#utility.yul\":5667:5673   */\n      dup3\n        /* \"#utility.yul\":5660:5664   */\n      0x20\n        /* \"#utility.yul\":5652:5658   */\n      dup7\n        /* \"#utility.yul\":5648:5665   */\n      add\n        /* \"#utility.yul\":5600:5679   */\n      tag_92\n      jump\t// in\n    tag_186:\n        /* \"#utility.yul\":5591:5679   */\n      swap2\n      pop\n        /* \"#utility.yul\":5407:5685   */\n      pop\n        /* \"#utility.yul\":5345:5685   */\n      swap3\n      swap2\n      pop\n      pop\n      jump\t// out\n        /* \"#utility.yul\":5691:6200   */\n    tag_14:\n        /* \"#utility.yul\":5760:5766   */\n      0x00\n        /* \"#utility.yul\":5809:5811   */\n      0x20\n        /* \"#utility.yul\":5797:5806   */\n      dup3\n        /* \"#utility.yul\":5788:5795   */\n      dup5\n        /* \"#utility.yul\":5784:5807   */\n      sub\n        /* \"#utility.yul\":5780:5812   */\n      slt\n        /* \"#utility.yul\":5777:5896   */\n      iszero\n      tag_188\n      jumpi\n        /* \"#utility.yul\":5815:5894   */\n      tag_189\n      tag_83\n      jump\t// in\n    tag_189:\n        /* \"#utility.yul\":5777:5896   */\n    tag_188:\n        /* \"#utility.yul\":5963:5964   */\n      0x00\n        /* \"#utility.yul\":5952:5961   */\n      dup3\n        /* \"#utility.yul\":5948:5965   */\n      add\n        /* \"#utility.yul\":5935:5966   */\n      calldataload\n        /* \"#utility.yul\":5993:6011   */\n      0xffffffffffffffff\n        /* \"#utility.yul\":5985:5991   */\n      dup2\n        /* \"#utility.yul\":5982:6012   */\n      gt\n        /* \"#utility.yul\":5979:6096   */\n      iszero\n      tag_190\n      jumpi\n        /* \"#utility.yul\":6015:6094   */\n      tag_191\n      tag_84\n      jump\t// in\n    tag_191:\n        /* \"#utility.yul\":5979:6096   */\n    tag_190:\n        /* \"#utility.yul\":6120:6183   */\n      tag_192\n        /* \"#utility.yul\":6175:6182   */\n      dup5\n        /* \"#utility.yul\":6166:6172   */\n      dup3\n        /* \"#utility.yul\":6155:6164   */\n      dup6\n        /* \"#utility.yul\":6151:6173   */\n      add\n        /* \"#utility.yul\":6120:6183   */\n      tag_93\n      jump\t// in\n    tag_192:\n        /* \"#utility.yul\":6110:6183   */\n      swap2\n      pop\n        /* \"#utility.yul\":5906:6193   */\n      pop\n        /* \"#utility.yul\":5691:6200   */\n      swap3\n      swap2\n      pop\n      pop\n      jump\t// out\n        /* \"#utility.yul\":6206:6283   */\n    tag_94:\n        /* \"#utility.yul\":6243:6250   */\n      0x00\n        /* \"#utility.yul\":6272:6277   */\n      dup2\n        /* \"#utility.yul\":6261:6277   */\n      swap1\n      pop\n        /* \"#utility.yul\":6206:6283   */\n      swap2\n      swap1\n      pop\n      jump\t// out\n        /* \"#utility.yul\":6289:6407   */\n    tag_95:\n        /* \"#utility.yul\":6376:6400   */\n      tag_195\n        /* \"#utility.yul\":6394:6399   */\n      dup2\n        /* \"#utility.yul\":6376:6400   */\n      tag_94\n      jump\t// in\n    tag_195:\n        /* \"#utility.yul\":6371:6374   */\n      dup3\n        /* \"#utility.yul\":6364:6401   */\n      mstore\n        /* \"#utility.yul\":6289:6407   */\n      pop\n      pop\n      jump\t// out\n        /* \"#utility.yul\":6413:6635   */\n    tag_20:\n        /* \"#utility.yul\":6506:6510   */\n      0x00\n        /* \"#utility.yul\":6544:6546   */\n      0x20\n        /* \"#utility.yul\":6533:6542   */\n      dup3\n        /* \"#utility.yul\":6529:6547   */\n      add\n        /* \"#utility.yul\":6521:6547   */\n      swap1\n      pop\n        /* \"#utility.yul\":6557:6628   */\n      tag_197\n        /* \"#utility.yul\":6625:6626   */\n      0x00\n        /* \"#utility.yul\":6614:6623   */\n      dup4\n        /* \"#utility.yul\":6610:6627   */\n      add\n        /* \"#utility.yul\":6601:6607   */\n      dup5\n        /* \"#utility.yul\":6557:6628   */\n      tag_95\n      jump\t// in\n    tag_197:\n        /* \"#utility.yul\":6413:6635   */\n      swap3\n      swap2\n      pop\n      pop\n      jump\t// out\n        /* \"#utility.yul\":6641:6767   */\n    tag_96:\n        /* \"#utility.yul\":6678:6685   */\n      0x00\n        /* \"#utility.yul\":6718:6760   */\n      0xffffffffffffffffffffffffffffffffffffffff\n        /* \"#utility.yul\":6711:6716   */\n      dup3\n        /* \"#utility.yul\":6707:6761   */\n      and\n        /* \"#utility.yul\":6696:6761   */\n      swap1\n      pop\n        /* \"#utility.yul\":6641:6767   */\n      swap2\n      swap1\n      pop\n      jump\t// out\n        /* \"#utility.yul\":6773:6869   */\n    tag_97:\n        /* \"#utility.yul\":6810:6817   */\n      0x00\n        /* \"#utility.yul\":6839:6863   */\n      tag_200\n        /* \"#utility.yul\":6857:6862   */\n      dup3\n        /* \"#utility.yul\":6839:6863   */\n      tag_96\n      jump\t// in\n    tag_200:\n        /* \"#utility.yul\":6828:6863   */\n      swap1\n      pop\n        /* \"#utility.yul\":6773:6869   */\n      swap2\n      swap1\n      pop\n      jump\t// out\n        /* \"#utility.yul\":6875:6993   */\n    tag_98:\n        /* \"#utility.yul\":6962:6986   */\n      tag_202\n        /* \"#utility.yul\":6980:6985   */\n      dup2\n        /* \"#utility.yul\":6962:6986   */\n      tag_97\n      jump\t// in\n    tag_202:\n        /* \"#utility.yul\":6957:6960   */\n      dup3\n        /* \"#utility.yul\":6950:6987   */\n      mstore\n        /* \"#utility.yul\":6875:6993   */\n      pop\n      pop\n      jump\t// out\n        /* \"#utility.yul\":6999:7221   */\n    tag_24:\n        /* \"#utility.yul\":7092:7096   */\n      0x00\n        /* \"#utility.yul\":7130:7132   */\n      0x20\n        /* \"#utility.yul\":7119:7128   */\n      dup3\n        /* \"#utility.yul\":7115:7133   */\n      add\n        /* \"#utility.yul\":7107:7133   */\n      swap1\n      pop\n        /* \"#utility.yul\":7143:7214   */\n      tag_204\n        /* \"#utility.yul\":7211:7212   */\n      0x00\n        /* \"#utility.yul\":7200:7209   */\n      dup4\n        /* \"#utility.yul\":7196:7213   */\n      add\n        /* \"#utility.yul\":7187:7193   */\n      dup5\n        /* \"#utility.yul\":7143:7214   */\n      tag_98\n      jump\t// in\n    tag_204:\n        /* \"#utility.yul\":6999:7221   */\n      swap3\n      swap2\n      pop\n      pop\n      jump\t// out\n        /* \"#utility.yul\":7227:7349   */\n    tag_99:\n        /* \"#utility.yul\":7300:7324   */\n      tag_206\n        /* \"#utility.yul\":7318:7323   */\n      dup2\n        /* \"#utility.yul\":7300:7324   */\n      tag_94\n      jump\t// in\n    tag_206:\n        /* \"#utility.yul\":7293:7298   */\n      dup2\n        /* \"#utility.yul\":7290:7325   */\n      eq\n        /* \"#utility.yul\":7280:7343   */\n      tag_207\n      jumpi\n        /* \"#utility.yul\":7339:7340   */\n      0x00\n        /* \"#utility.yul\":7336:7337   */\n      dup1\n        /* \"#utility.yul\":7329:7341   */\n      revert\n        /* \"#utility.yul\":7280:7343   */\n    tag_207:\n        /* \"#utility.yul\":7227:7349   */\n      pop\n      jump\t// out\n        /* \"#utility.yul\":7355:7494   */\n    tag_100:\n        /* \"#utility.yul\":7401:7406   */\n      0x00\n        /* \"#utility.yul\":7439:7445   */\n      dup2\n        /* \"#utility.yul\":7426:7446   */\n      calldataload\n        /* \"#utility.yul\":7417:7446   */\n      swap1\n      pop\n        /* \"#utility.yul\":7455:7488   */\n      tag_209\n        /* \"#utility.yul\":7482:7487   */\n      dup2\n        /* \"#utility.yul\":7455:7488   */\n      tag_99\n      jump\t// in\n    tag_209:\n        /* \"#utility.yul\":7355:7494   */\n      swap3\n      swap2\n      pop\n      pop\n      jump\t// out\n        /* \"#utility.yul\":7500:8479   */\n    tag_27:\n        /* \"#utility.yul\":7597:7603   */\n      0x00\n        /* \"#utility.yul\":7605:7611   */\n      dup1\n        /* \"#utility.yul\":7613:7619   */\n      0x00\n        /* \"#utility.yul\":7662:7664   */\n      0x60\n        /* \"#utility.yul\":7650:7659   */\n      dup5\n        /* \"#utility.yul\":7641:7648   */\n      dup7\n        /* \"#utility.yul\":7637:7660   */\n      sub\n        /* \"#utility.yul\":7633:7665   */\n      slt\n        /* \"#utility.yul\":7630:7749   */\n      iszero\n      tag_211\n      jumpi\n        /* \"#utility.yul\":7668:7747   */\n      tag_212\n      tag_83\n      jump\t// in\n    tag_212:\n        /* \"#utility.yul\":7630:7749   */\n    tag_211:\n        /* \"#utility.yul\":7816:7817   */\n      0x00\n        /* \"#utility.yul\":7805:7814   */\n      dup5\n        /* \"#utility.yul\":7801:7818   */\n      add\n        /* \"#utility.yul\":7788:7819   */\n      calldataload\n        /* \"#utility.yul\":7846:7864   */\n      0xffffffffffffffff\n        /* \"#utility.yul\":7838:7844   */\n      dup2\n        /* \"#utility.yul\":7835:7865   */\n      gt\n        /* \"#utility.yul\":7832:7949   */\n      iszero\n      tag_213\n      jumpi\n        /* \"#utility.yul\":7868:7947   */\n      tag_214\n      tag_84\n      jump\t// in\n    tag_214:\n        /* \"#utility.yul\":7832:7949   */\n    tag_213:\n        /* \"#utility.yul\":7973:8036   */\n      tag_215\n        /* \"#utility.yul\":8028:8035   */\n      dup7\n        /* \"#utility.yul\":8019:8025   */\n      dup3\n        /* \"#utility.yul\":8008:8017   */\n      dup8\n        /* \"#utility.yul\":8004:8026   */\n      add\n        /* \"#utility.yul\":7973:8036   */\n      tag_93\n      jump\t// in\n    tag_215:\n        /* \"#utility.yul\":7963:8036   */\n      swap4\n      pop\n        /* \"#utility.yul\":7759:8046   */\n      pop\n        /* \"#utility.yul\":8085:8087   */\n      0x20\n        /* \"#utility.yul\":8111:8164   */\n      tag_216\n        /* \"#utility.yul\":8156:8163   */\n      dup7\n        /* \"#utility.yul\":8147:8153   */\n      dup3\n        /* \"#utility.yul\":8136:8145   */\n      dup8\n        /* \"#utility.yul\":8132:8154   */\n      add\n        /* \"#utility.yul\":8111:8164   */\n      tag_100\n      jump\t// in\n    tag_216:\n        /* \"#utility.yul\":8101:8164   */\n      swap3\n      pop\n        /* \"#utility.yul\":8056:8174   */\n      pop\n        /* \"#utility.yul\":8241:8243   */\n      0x40\n        /* \"#utility.yul\":8230:8239   */\n      dup5\n        /* \"#utility.yul\":8226:8244   */\n      add\n        /* \"#utility.yul\":8213:8245   */\n      calldataload\n        /* \"#utility.yul\":8272:8290   */\n      0xffffffffffffffff\n        /* \"#utility.yul\":8264:8270   */\n      dup2\n        /* \"#utility.yul\":8261:8291   */\n      gt\n        /* \"#utility.yul\":8258:8375   */\n      iszero\n      tag_217\n      jumpi\n        /* \"#utility.yul\":8294:8373   */\n      tag_218\n      tag_84\n      jump\t// in\n    tag_218:\n        /* \"#utility.yul\":8258:8375   */\n    tag_217:\n        /* \"#utility.yul\":8399:8462   */\n      tag_219\n        /* \"#utility.yul\":8454:8461   */\n      dup7\n        /* \"#utility.yul\":8445:8451   */\n      dup3\n        /* \"#utility.yul\":8434:8443   */\n      dup8\n        /* \"#utility.yul\":8430:8452   */\n      add\n        /* \"#utility.yul\":8399:8462   */\n      tag_93\n      jump\t// in\n    tag_219:\n        /* \"#utility.yul\":8389:8462   */\n      swap2\n      pop\n        /* \"#utility.yul\":8184:8472   */\n      pop\n        /* \"#utility.yul\":7500:8479   */\n      swap3\n      pop\n      swap3\n      pop\n      swap3\n      jump\t// out\n        /* \"#utility.yul\":8485:8665   */\n    tag_101:\n        /* \"#utility.yul\":8533:8610   */\n      0x4e487b7100000000000000000000000000000000000000000000000000000000\n        /* \"#utility.yul\":8530:8531   */\n      0x00\n        /* \"#utility.yul\":8523:8611   */\n      mstore\n        /* \"#utility.yul\":8630:8634   */\n      0x22\n        /* \"#utility.yul\":8627:8628   */\n      0x04\n        /* \"#utility.yul\":8620:8635   */\n      mstore\n        /* \"#utility.yul\":8654:8658   */\n      0x24\n        /* \"#utility.yul\":8651:8652   */\n      0x00\n        /* \"#utility.yul\":8644:8659   */\n      revert\n        /* \"#utility.yul\":8671:8991   */\n    tag_34:\n        /* \"#utility.yul\":8715:8721   */\n      0x00\n        /* \"#utility.yul\":8752:8753   */\n      0x02\n        /* \"#utility.yul\":8746:8750   */\n      dup3\n        /* \"#utility.yul\":8742:8754   */\n      div\n        /* \"#utility.yul\":8732:8754   */\n      swap1\n      pop\n        /* \"#utility.yul\":8799:8800   */\n      0x01\n        /* \"#utility.yul\":8793:8797   */\n      dup3\n        /* \"#utility.yul\":8789:8801   */\n      and\n        /* \"#utility.yul\":8820:8838   */\n      dup1\n        /* \"#utility.yul\":8810:8891   */\n      tag_222\n      jumpi\n        /* \"#utility.yul\":8876:8880   */\n      0x7f\n        /* \"#utility.yul\":8868:8874   */\n      dup3\n        /* \"#utility.yul\":8864:8881   */\n      and\n        /* \"#utility.yul\":8854:8881   */\n      swap2\n      pop\n        /* \"#utility.yul\":8810:8891   */\n    tag_222:\n        /* \"#utility.yul\":8938:8940   */\n      0x20\n        /* \"#utility.yul\":8930:8936   */\n      dup3\n        /* \"#utility.yul\":8927:8941   */\n      lt\n        /* \"#utility.yul\":8907:8925   */\n      dup2\n        /* \"#utility.yul\":8904:8942   */\n      sub\n        /* \"#utility.yul\":8901:8985   */\n      tag_223\n      jumpi\n        /* \"#utility.yul\":8957:8975   */\n      tag_224\n      tag_101\n      jump\t// in\n    tag_224:\n        /* \"#utility.yul\":8901:8985   */\n    tag_223:\n        /* \"#utility.yul\":8722:8991   */\n      pop\n        /* \"#utility.yul\":8671:8991   */\n      swap2\n      swap1\n      pop\n      jump\t// out\n        /* \"#utility.yul\":8997:9091   */\n    tag_102:\n        /* \"#utility.yul\":9030:9038   */\n      0x00\n        /* \"#utility.yul\":9078:9083   */\n      dup2\n        /* \"#utility.yul\":9074:9076   */\n      0x60\n        /* \"#utility.yul\":9070:9084   */\n      shl\n        /* \"#utility.yul\":9049:9084   */\n      swap1\n      pop\n        /* \"#utility.yul\":8997:9091   */\n      swap2\n      swap1\n      pop\n      jump\t// out\n        /* \"#utility.yul\":9097:9191   */\n    tag_103:\n        /* \"#utility.yul\":9136:9143   */\n      0x00\n        /* \"#utility.yul\":9165:9185   */\n      tag_227\n        /* \"#utility.yul\":9179:9184   */\n      dup3\n        /* \"#utility.yul\":9165:9185   */\n      tag_102\n      jump\t// in\n    tag_227:\n        /* \"#utility.yul\":9154:9185   */\n      swap1\n      pop\n        /* \"#utility.yul\":9097:9191   */\n      swap2\n      swap1\n      pop\n      jump\t// out\n        /* \"#utility.yul\":9197:9297   */\n    tag_104:\n        /* \"#utility.yul\":9236:9243   */\n      0x00\n        /* \"#utility.yul\":9265:9291   */\n      tag_229\n        /* \"#utility.yul\":9285:9290   */\n      dup3\n        /* \"#utility.yul\":9265:9291   */\n      tag_103\n      jump\t// in\n    tag_229:\n        /* \"#utility.yul\":9254:9291   */\n      swap1\n      pop\n        /* \"#utility.yul\":9197:9297   */\n      swap2\n      swap1\n      pop\n      jump\t// out\n        /* \"#utility.yul\":9303:9460   */\n    tag_105:\n        /* \"#utility.yul\":9408:9453   */\n      tag_231\n        /* \"#utility.yul\":9428:9452   */\n      tag_232\n        /* \"#utility.yul\":9446:9451   */\n      dup3\n        /* \"#utility.yul\":9428:9452   */\n      tag_97\n      jump\t// in\n    tag_232:\n        /* \"#utility.yul\":9408:9453   */\n      tag_104\n      jump\t// in\n    tag_231:\n        /* \"#utility.yul\":9403:9406   */\n      dup3\n        /* \"#utility.yul\":9396:9454   */\n      mstore\n        /* \"#utility.yul\":9303:9460   */\n      pop\n      pop\n      jump\t// out\n        /* \"#utility.yul\":9466:9722   */\n    tag_41:\n        /* \"#utility.yul\":9578:9581   */\n      0x00\n        /* \"#utility.yul\":9593:9668   */\n      tag_234\n        /* \"#utility.yul\":9664:9667   */\n      dup3\n        /* \"#utility.yul\":9655:9661   */\n      dup5\n        /* \"#utility.yul\":9593:9668   */\n      tag_105\n      jump\t// in\n    tag_234:\n        /* \"#utility.yul\":9693:9695   */\n      0x14\n        /* \"#utility.yul\":9688:9691   */\n      dup3\n        /* \"#utility.yul\":9684:9696   */\n      add\n        /* \"#utility.yul\":9677:9696   */\n      swap2\n      pop\n        /* \"#utility.yul\":9713:9716   */\n      dup2\n        /* \"#utility.yul\":9706:9716   */\n      swap1\n      pop\n        /* \"#utility.yul\":9466:9722   */\n      swap3\n      swap2\n      pop\n      pop\n      jump\t// out\n        /* \"#utility.yul\":9728:9897   */\n    tag_106:\n        /* \"#utility.yul\":9812:9823   */\n      0x00\n        /* \"#utility.yul\":9846:9852   */\n      dup3\n        /* \"#utility.yul\":9841:9844   */\n      dup3\n        /* \"#utility.yul\":9834:9853   */\n      mstore\n        /* \"#utility.yul\":9886:9890   */\n      0x20\n        /* \"#utility.yul\":9881:9884   */\n      dup3\n        /* \"#utility.yul\":9877:9891   */\n      add\n        /* \"#utility.yul\":9862:9891   */\n      swap1\n      pop\n        /* \"#utility.yul\":9728:9897   */\n      swap3\n      swap2\n      pop\n      pop\n      jump\t// out\n        /* \"#utility.yul\":9903:10067   */\n    tag_107:\n        /* \"#utility.yul\":10043:10059   */\n      0x416c726561647920766f74656421000000000000000000000000000000000000\n        /* \"#utility.yul\":10039:10040   */\n      0x00\n        /* \"#utility.yul\":10031:10037   */\n      dup3\n        /* \"#utility.yul\":10027:10041   */\n      add\n        /* \"#utility.yul\":10020:10060   */\n      mstore\n        /* \"#utility.yul\":9903:10067   */\n      pop\n      jump\t// out\n        /* \"#utility.yul\":10073:10439   */\n    tag_108:\n        /* \"#utility.yul\":10215:10218   */\n      0x00\n        /* \"#utility.yul\":10236:10303   */\n      tag_238\n        /* \"#utility.yul\":10300:10302   */\n      0x0e\n        /* \"#utility.yul\":10295:10298   */\n      dup4\n        /* \"#utility.yul\":10236:10303   */\n      tag_106\n      jump\t// in\n    tag_238:\n        /* \"#utility.yul\":10229:10303   */\n      swap2\n      pop\n        /* \"#utility.yul\":10312:10405   */\n      tag_239\n        /* \"#utility.yul\":10401:10404   */\n      dup3\n        /* \"#utility.yul\":10312:10405   */\n      tag_107\n      jump\t// in\n    tag_239:\n        /* \"#utility.yul\":10430:10432   */\n      0x20\n        /* \"#utility.yul\":10425:10428   */\n      dup3\n        /* \"#utility.yul\":10421:10433   */\n      add\n        /* \"#utility.yul\":10414:10433   */\n      swap1\n      pop\n        /* \"#utility.yul\":10073:10439   */\n      swap2\n      swap1\n      pop\n      jump\t// out\n        /* \"#utility.yul\":10445:10864   */\n    tag_46:\n        /* \"#utility.yul\":10611:10615   */\n      0x00\n        /* \"#utility.yul\":10649:10651   */\n      0x20\n        /* \"#utility.yul\":10638:10647   */\n      dup3\n        /* \"#utility.yul\":10634:10652   */\n      add\n        /* \"#utility.yul\":10626:10652   */\n      swap1\n      pop\n        /* \"#utility.yul\":10698:10707   */\n      dup2\n        /* \"#utility.yul\":10692:10696   */\n      dup2\n        /* \"#utility.yul\":10688:10708   */\n      sub\n        /* \"#utility.yul\":10684:10685   */\n      0x00\n        /* \"#utility.yul\":10673:10682   */\n      dup4\n        /* \"#utility.yul\":10669:10686   */\n      add\n        /* \"#utility.yul\":10662:10709   */\n      mstore\n        /* \"#utility.yul\":10726:10857   */\n      tag_241\n        /* \"#utility.yul\":10852:10856   */\n      dup2\n        /* \"#utility.yul\":10726:10857   */\n      tag_108\n      jump\t// in\n    tag_241:\n        /* \"#utility.yul\":10718:10857   */\n      swap1\n      pop\n        /* \"#utility.yul\":10445:10864   */\n      swap2\n      swap1\n      pop\n      jump\t// out\n        /* \"#utility.yul\":10870:11018   */\n    tag_109:\n        /* \"#utility.yul\":10972:10983   */\n      0x00\n        /* \"#utility.yul\":11009:11012   */\n      dup2\n        /* \"#utility.yul\":10994:11012   */\n      swap1\n      pop\n        /* \"#utility.yul\":10870:11018   */\n      swap3\n      swap2\n      pop\n      pop\n      jump\t// out\n        /* \"#utility.yul\":11024:11414   */\n    tag_110:\n        /* \"#utility.yul\":11130:11133   */\n      0x00\n        /* \"#utility.yul\":11158:11197   */\n      tag_244\n        /* \"#utility.yul\":11191:11196   */\n      dup3\n        /* \"#utility.yul\":11158:11197   */\n      tag_74\n      jump\t// in\n    tag_244:\n        /* \"#utility.yul\":11213:11302   */\n      tag_245\n        /* \"#utility.yul\":11295:11301   */\n      dup2\n        /* \"#utility.yul\":11290:11293   */\n      dup6\n        /* \"#utility.yul\":11213:11302   */\n      tag_109\n      jump\t// in\n    tag_245:\n        /* \"#utility.yul\":11206:11302   */\n      swap4\n      pop\n        /* \"#utility.yul\":11311:11376   */\n      tag_246\n        /* \"#utility.yul\":11369:11375   */\n      dup2\n        /* \"#utility.yul\":11364:11367   */\n      dup6\n        /* \"#utility.yul\":11357:11361   */\n      0x20\n        /* \"#utility.yul\":11350:11355   */\n      dup7\n        /* \"#utility.yul\":11346:11362   */\n      add\n        /* \"#utility.yul\":11311:11376   */\n      tag_76\n      jump\t// in\n    tag_246:\n        /* \"#utility.yul\":11401:11407   */\n      dup1\n        /* \"#utility.yul\":11396:11399   */\n      dup5\n        /* \"#utility.yul\":11392:11408   */\n      add\n        /* \"#utility.yul\":11385:11408   */\n      swap2\n      pop\n        /* \"#utility.yul\":11134:11414   */\n      pop\n        /* \"#utility.yul\":11024:11414   */\n      swap3\n      swap2\n      pop\n      pop\n      jump\t// out\n        /* \"#utility.yul\":11420:11695   */\n    tag_49:\n        /* \"#utility.yul\":11552:11555   */\n      0x00\n        /* \"#utility.yul\":11574:11669   */\n      tag_248\n        /* \"#utility.yul\":11665:11668   */\n      dup3\n        /* \"#utility.yul\":11656:11662   */\n      dup5\n        /* \"#utility.yul\":11574:11669   */\n      tag_110\n      jump\t// in\n    tag_248:\n        /* \"#utility.yul\":11567:11669   */\n      swap2\n      pop\n        /* \"#utility.yul\":11686:11689   */\n      dup2\n        /* \"#utility.yul\":11679:11689   */\n      swap1\n      pop\n        /* \"#utility.yul\":11420:11695   */\n      swap3\n      swap2\n      pop\n      pop\n      jump\t// out\n        /* \"#utility.yul\":11701:11881   */\n    tag_111:\n        /* \"#utility.yul\":11749:11826   */\n      0x4e487b7100000000000000000000000000000000000000000000000000000000\n        /* \"#utility.yul\":11746:11747   */\n      0x00\n        /* \"#utility.yul\":11739:11827   */\n      mstore\n        /* \"#utility.yul\":11846:11850   */\n      0x11\n        /* \"#utility.yul\":11843:11844   */\n      0x04\n        /* \"#utility.yul\":11836:11851   */\n      mstore\n        /* \"#utility.yul\":11870:11874   */\n      0x24\n        /* \"#utility.yul\":11867:11868   */\n      0x00\n        /* \"#utility.yul\":11860:11875   */\n      revert\n        /* \"#utility.yul\":11887:12120   */\n    tag_51:\n        /* \"#utility.yul\":11926:11929   */\n      0x00\n        /* \"#utility.yul\":11949:11973   */\n      tag_251\n        /* \"#utility.yul\":11967:11972   */\n      dup3\n        /* \"#utility.yul\":11949:11973   */\n      tag_94\n      jump\t// in\n    tag_251:\n        /* \"#utility.yul\":11940:11973   */\n      swap2\n      pop\n        /* \"#utility.yul\":11995:12061   */\n      0xffffffffffffffffffffffffffffffffffffffffffffffffffffffffffffffff\n        /* \"#utility.yul\":11988:11993   */\n      dup3\n        /* \"#utility.yul\":11985:12062   */\n      sub\n        /* \"#utility.yul\":11982:12085   */\n      tag_252\n      jumpi\n        /* \"#utility.yul\":12065:12083   */\n      tag_253\n      tag_111\n      jump\t// in\n    tag_253:\n        /* \"#utility.yul\":11982:12085   */\n    tag_252:\n        /* \"#utility.yul\":12112:12113   */\n      0x01\n        /* \"#utility.yul\":12105:12110   */\n      dup3\n        /* \"#utility.yul\":12101:12114   */\n      add\n        /* \"#utility.yul\":12094:12114   */\n      swap1\n      pop\n        /* \"#utility.yul\":11887:12120   */\n      swap2\n      swap1\n      pop\n      jump\t// out\n        /* \"#utility.yul\":12126:12205   */\n    tag_112:\n        /* \"#utility.yul\":12165:12172   */\n      0x00\n        /* \"#utility.yul\":12194:12199   */\n      dup2\n        /* \"#utility.yul\":12183:12199   */\n      swap1\n      pop\n        /* \"#utility.yul\":12126:12205   */\n      swap2\n      swap1\n      pop\n      jump\t// out\n        /* \"#utility.yul\":12211:12368   */\n    tag_113:\n        /* \"#utility.yul\":12316:12361   */\n      tag_256\n        /* \"#utility.yul\":12336:12360   */\n      tag_257\n        /* \"#utility.yul\":12354:12359   */\n      dup3\n        /* \"#utility.yul\":12336:12360   */\n      tag_94\n      jump\t// in\n    tag_257:\n        /* \"#utility.yul\":12316:12361   */\n      tag_112\n      jump\t// in\n    tag_256:\n        /* \"#utility.yul\":12311:12314   */\n      dup3\n        /* \"#utility.yul\":12304:12362   */\n      mstore\n        /* \"#utility.yul\":12211:12368   */\n      pop\n      pop\n      jump\t// out\n        /* \"#utility.yul\":12374:12950   */\n    tag_56:\n        /* \"#utility.yul\":12582:12585   */\n      0x00\n        /* \"#utility.yul\":12604:12699   */\n      tag_259\n        /* \"#utility.yul\":12695:12698   */\n      dup3\n        /* \"#utility.yul\":12686:12692   */\n      dup7\n        /* \"#utility.yul\":12604:12699   */\n      tag_110\n      jump\t// in\n    tag_259:\n        /* \"#utility.yul\":12597:12699   */\n      swap2\n      pop\n        /* \"#utility.yul\":12709:12784   */\n      tag_260\n        /* \"#utility.yul\":12780:12783   */\n      dup3\n        /* \"#utility.yul\":12771:12777   */\n      dup6\n        /* \"#utility.yul\":12709:12784   */\n      tag_113\n      jump\t// in\n    tag_260:\n        /* \"#utility.yul\":12809:12811   */\n      0x20\n        /* \"#utility.yul\":12804:12807   */\n      dup3\n        /* \"#utility.yul\":12800:12812   */\n      add\n        /* \"#utility.yul\":12793:12812   */\n      swap2\n      pop\n        /* \"#utility.yul\":12829:12924   */\n      tag_261\n        /* \"#utility.yul\":12920:12923   */\n      dup3\n        /* \"#utility.yul\":12911:12917   */\n      dup5\n        /* \"#utility.yul\":12829:12924   */\n      tag_110\n      jump\t// in\n    tag_261:\n        /* \"#utility.yul\":12822:12924   */\n      swap2\n      pop\n        /* \"#utility.yul\":12941:12944   */\n      dup2\n        /* \"#utility.yul\":12934:12944   */\n      swap1\n      pop\n        /* \"#utility.yul\":12374:12950   */\n      swap5\n      swap4\n      pop\n      pop\n      pop\n      pop\n      jump\t// out\n        /* \"#utility.yul\":12956:13097   */\n    tag_114:\n        /* \"#utility.yul\":13005:13009   */\n      0x00\n        /* \"#utility.yul\":13028:13031   */\n      dup2\n        /* \"#utility.yul\":13020:13031   */\n      swap1\n      pop\n        /* \"#utility.yul\":13051:13054   */\n      dup2\n        /* \"#utility.yul\":13048:13049   */\n      0x00\n        /* \"#utility.yul\":13041:13055   */\n      mstore\n        /* \"#utility.yul\":13085:13089   */\n      0x20\n        /* \"#utility.yul\":13082:13083   */\n      0x00\n        /* \"#utility.yul\":13072:13090   */\n      keccak256\n        /* \"#utility.yul\":13064:13090   */\n      swap1\n      pop\n        /* \"#utility.yul\":12956:13097   */\n      swap2\n      swap1\n      pop\n      jump\t// out\n        /* \"#utility.yul\":13103:13196   */\n    tag_115:\n        /* \"#utility.yul\":13140:13146   */\n      0x00\n        /* \"#utility.yul\":13187:13189   */\n      0x20\n        /* \"#utility.yul\":13182:13184   */\n      0x1f\n        /* \"#utility.yul\":13175:13180   */\n      dup4\n        /* \"#utility.yul\":13171:13185   */\n      add\n        /* \"#utility.yul\":13167:13190   */\n      div\n        /* \"#utility.yul\":13157:13190   */\n      swap1\n      pop\n        /* \"#utility.yul\":13103:13196   */\n      swap2\n      swap1\n      pop\n      jump\t// out\n        /* \"#utility.yul\":13202:13309   */\n    tag_116:\n        /* \"#utility.yul\":13246:13254   */\n      0x00\n        /* \"#utility.yul\":13296:13301   */\n      dup3\n        /* \"#utility.yul\":13290:13294   */\n      dup3\n        /* \"#utility.yul\":13286:13302   */\n      shl\n        /* \"#utility.yul\":13265:13302   */\n      swap1\n      pop\n        /* \"#utility.yul\":13202:13309   */\n      swap3\n      swap2\n      pop\n      pop\n      jump\t// out\n        /* \"#utility.yul\":13315:13708   */\n    tag_117:\n        /* \"#utility.yul\":13384:13390   */\n      0x00\n        /* \"#utility.yul\":13434:13435   */\n      0x08\n        /* \"#utility.yul\":13422:13432   */\n      dup4\n        /* \"#utility.yul\":13418:13436   */\n      mul\n        /* \"#utility.yul\":13457:13554   */\n      tag_266\n        /* \"#utility.yul\":13487:13553   */\n      0xffffffffffffffffffffffffffffffffffffffffffffffffffffffffffffffff\n        /* \"#utility.yul\":13476:13485   */\n      dup3\n        /* \"#utility.yul\":13457:13554   */\n      tag_116\n      jump\t// in\n    tag_266:\n        /* \"#utility.yul\":13575:13614   */\n      tag_267\n        /* \"#utility.yul\":13605:13613   */\n      dup7\n        /* \"#utility.yul\":13594:13603   */\n      dup4\n        /* \"#utility.yul\":13575:13614   */\n      tag_116\n      jump\t// in\n    tag_267:\n        /* \"#utility.yul\":13563:13614   */\n      swap6\n      pop\n        /* \"#utility.yul\":13647:13651   */\n      dup1\n        /* \"#utility.yul\":13643:13652   */\n      not\n        /* \"#utility.yul\":13636:13641   */\n      dup5\n        /* \"#utility.yul\":13632:13653   */\n      and\n        /* \"#utility.yul\":13623:13653   */\n      swap4\n      pop\n        /* \"#utility.yul\":13696:13700   */\n      dup1\n        /* \"#utility.yul\":13686:13694   */\n      dup7\n        /* \"#utility.yul\":13682:13701   */\n      and\n        /* \"#utility.yul\":13675:13680   */\n      dup5\n        /* \"#utility.yul\":13672:13702   */\n      or\n        /* \"#utility.yul\":13662:13702   */\n      swap3\n      pop\n        /* \"#utility.yul\":13391:13708   */\n      pop\n      pop\n        /* \"#utility.yul\":13315:13708   */\n      swap4\n      swap3\n      pop\n      pop\n      pop\n      jump\t// out\n        /* \"#utility.yul\":13714:13774   */\n    tag_118:\n        /* \"#utility.yul\":13742:13745   */\n      0x00\n        /* \"#utility.yul\":13763:13768   */\n      dup2\n        /* \"#utility.yul\":13756:13768   */\n      swap1\n      pop\n        /* \"#utility.yul\":13714:13774   */\n      swap2\n      swap1\n      pop\n      jump\t// out\n        /* \"#utility.yul\":13780:13922   */\n    tag_119:\n        /* \"#utility.yul\":13830:13839   */\n      0x00\n        /* \"#utility.yul\":13863:13916   */\n      tag_270\n        /* \"#utility.yul\":13881:13915   */\n      tag_271\n        /* \"#utility.yul\":13890:13914   */\n      tag_272\n        /* \"#utility.yul\":13908:13913   */\n      dup5\n        /* \"#utility.yul\":13890:13914   */\n      tag_94\n      jump\t// in\n    tag_272:\n        /* \"#utility.yul\":13881:13915   */\n      tag_118\n      jump\t// in\n    tag_271:\n        /* \"#utility.yul\":13863:13916   */\n      tag_94\n      jump\t// in\n    tag_270:\n        /* \"#utility.yul\":13850:13916   */\n      swap1\n      pop\n        /* \"#utility.yul\":13780:13922   */\n      swap2\n      swap1\n      pop\n      jump\t// out\n        /* \"#utility.yul\":13928:14003   */\n    tag_120:\n        /* \"#utility.yul\":13971:13974   */\n      0x00\n        /* \"#utility.yul\":13992:13997   */\n      dup2\n        /* \"#utility.yul\":13985:13997   */\n      swap1\n      pop\n        /* \"#utility.yul\":13928:14003   */\n      swap2\n      swap1\n      pop\n      jump\t// out\n        /* \"#utility.yul\":14009:14278   */\n    tag_121:\n        /* \"#utility.yul\":14119:14158   */\n      tag_275\n        /* \"#utility.yul\":14150:14157   */\n      dup4\n        /* \"#utility.yul\":14119:14158   */\n      tag_119\n      jump\t// in\n    tag_275:\n        /* \"#utility.yul\":14180:14271   */\n      tag_276\n        /* \"#utility.yul\":14229:14270   */\n      tag_277\n        /* \"#utility.yul\":14253:14269   */\n      dup3\n        /* \"#utility.yul\":14229:14270   */\n      tag_120\n      jump\t// in\n    tag_277:\n        /* \"#utility.yul\":14221:14227   */\n      dup5\n        /* \"#utility.yul\":14214:14218   */\n      dup5\n        /* \"#utility.yul\":14208:14219   */\n      sload\n        /* \"#utility.yul\":14180:14271   */\n      tag_117\n      jump\t// in\n    tag_276:\n        /* \"#utility.yul\":14174:14178   */\n      dup3\n        /* \"#utility.yul\":14167:14272   */\n      sstore\n        /* \"#utility.yul\":14085:14278   */\n      pop\n        /* \"#utility.yul\":14009:14278   */\n      pop\n      pop\n      pop\n      jump\t// out\n        /* \"#utility.yul\":14284:14357   */\n    tag_122:\n        /* \"#utility.yul\":14329:14332   */\n      0x00\n        /* \"#utility.yul\":14284:14357   */\n      swap1\n      jump\t// out\n        /* \"#utility.yul\":14363:14552   */\n    tag_123:\n        /* \"#utility.yul\":14440:14472   */\n      tag_280\n      tag_122\n      jump\t// in\n    tag_280:\n        /* \"#utility.yul\":14481:14546   */\n      tag_281\n        /* \"#utility.yul\":14539:14545   */\n      dup2\n        /* \"#utility.yul\":14531:14537   */\n      dup5\n        /* \"#utility.yul\":14525:14529   */\n      dup5\n        /* \"#utility.yul\":14481:14546   */\n      tag_121\n      jump\t// in\n    tag_281:\n        /* \"#utility.yul\":14416:14552   */\n      pop\n        /* \"#utility.yul\":14363:14552   */\n      pop\n      pop\n      jump\t// out\n        /* \"#utility.yul\":14558:14744   */\n    tag_124:\n        /* \"#utility.yul\":14618:14738   */\n    tag_283:\n        /* \"#utility.yul\":14635:14638   */\n      dup2\n        /* \"#utility.yul\":14628:14633   */\n      dup2\n        /* \"#utility.yul\":14625:14639   */\n      lt\n        /* \"#utility.yul\":14618:14738   */\n      iszero\n      tag_285\n      jumpi\n        /* \"#utility.yul\":14689:14728   */\n      tag_286\n        /* \"#utility.yul\":14726:14727   */\n      0x00\n        /* \"#utility.yul\":14719:14724   */\n      dup3\n        /* \"#utility.yul\":14689:14728   */\n      tag_123\n      jump\t// in\n    tag_286:\n        /* \"#utility.yul\":14662:14663   */\n      0x01\n        /* \"#utility.yul\":14655:14660   */\n      dup2\n        /* \"#utility.yul\":14651:14664   */\n      add\n        /* \"#utility.yul\":14642:14664   */\n      swap1\n      pop\n        /* \"#utility.yul\":14618:14738   */\n      jump(tag_283)\n    tag_285:\n        /* \"#utility.yul\":14558:14744   */\n      pop\n      pop\n      jump\t// out\n        /* \"#utility.yul\":14750:15293   */\n    tag_125:\n        /* \"#utility.yul\":14851:14853   */\n      0x1f\n        /* \"#utility.yul\":14846:14849   */\n      dup3\n        /* \"#utility.yul\":14843:14854   */\n      gt\n        /* \"#utility.yul\":14840:15286   */\n      iszero\n      tag_288\n      jumpi\n        /* \"#utility.yul\":14885:14923   */\n      tag_289\n        /* \"#utility.yul\":14917:14922   */\n      dup2\n        /* \"#utility.yul\":14885:14923   */\n      tag_114\n      jump\t// in\n    tag_289:\n        /* \"#utility.yul\":14969:14998   */\n      tag_290\n        /* \"#utility.yul\":14987:14997   */\n      dup5\n        /* \"#utility.yul\":14969:14998   */\n      tag_115\n      jump\t// in\n    tag_290:\n        /* \"#utility.yul\":14959:14967   */\n      dup2\n        /* \"#utility.yul\":14955:14999   */\n      add\n        /* \"#utility.yul\":15152:15154   */\n      0x20\n        /* \"#utility.yul\":15140:15150   */\n      dup6\n        /* \"#utility.yul\":15137:15155   */\n      lt\n        /* \"#utility.yul\":15134:15183   */\n      iszero\n      tag_291\n      jumpi\n        /* \"#utility.yul\":15173:15181   */\n      dup2\n        /* \"#utility.yul\":15158:15181   */\n      swap1\n      pop\n        /* \"#utility.yul\":15134:15183   */\n    tag_291:\n        /* \"#utility.yul\":15196:15276   */\n      tag_292\n        /* \"#utility.yul\":15252:15274   */\n      tag_293\n        /* \"#utility.yul\":15270:15273   */\n      dup6\n        /* \"#utility.yul\":15252:15274   */\n      tag_115\n      jump\t// in\n    tag_293:\n        /* \"#utility.yul\":15242:15250   */\n      dup4\n        /* \"#utility.yul\":15238:15275   */\n      add\n        /* \"#utility.yul\":15225:15236   */\n      dup3\n        /* \"#utility.yul\":15196:15276   */\n      tag_124\n      jump\t// in\n    tag_292:\n        /* \"#utility.yul\":14855:15286   */\n      pop\n      pop\n        /* \"#utility.yul\":14840:15286   */\n    tag_288:\n        /* \"#utility.yul\":14750:15293   */\n      pop\n      pop\n      pop\n      jump\t// out\n        /* \"#utility.yul\":15299:15416   */\n    tag_126:\n        /* \"#utility.yul\":15353:15361   */\n      0x00\n        /* \"#utility.yul\":15403:15408   */\n      dup3\n        /* \"#utility.yul\":15397:15401   */\n      dup3\n        /* \"#utility.yul\":15393:15409   */\n      shr\n        /* \"#utility.yul\":15372:15409   */\n      swap1\n      pop\n        /* \"#utility.yul\":15299:15416   */\n      swap3\n      swap2\n      pop\n      pop\n      jump\t// out\n        /* \"#utility.yul\":15422:15591   */\n    tag_127:\n        /* \"#utility.yul\":15466:15472   */\n      0x00\n        /* \"#utility.yul\":15499:15550   */\n      tag_296\n        /* \"#utility.yul\":15547:15548   */\n      0x00\n        /* \"#utility.yul\":15543:15549   */\n      not\n        /* \"#utility.yul\":15535:15540   */\n      dup5\n        /* \"#utility.yul\":15532:15533   */\n      0x08\n        /* \"#utility.yul\":15528:15541   */\n      mul\n        /* \"#utility.yul\":15499:15550   */\n      tag_126\n      jump\t// in\n    tag_296:\n        /* \"#utility.yul\":15495:15551   */\n      not\n        /* \"#utility.yul\":15580:15584   */\n      dup1\n        /* \"#utility.yul\":15574:15578   */\n      dup4\n        /* \"#utility.yul\":15570:15585   */\n      and\n        /* \"#utility.yul\":15560:15585   */\n      swap2\n      pop\n        /* \"#utility.yul\":15473:15591   */\n      pop\n        /* \"#utility.yul\":15422:15591   */\n      swap3\n      swap2\n      pop\n      pop\n      jump\t// out\n        /* \"#utility.yul\":15596:15891   */\n    tag_128:\n        /* \"#utility.yul\":15672:15676   */\n      0x00\n        /* \"#utility.yul\":15818:15847   */\n      tag_298\n        /* \"#utility.yul\":15843:15846   */\n      dup4\n        /* \"#utility.yul\":15837:15841   */\n      dup4\n        /* \"#utility.yul\":15818:15847   */\n      tag_127\n      jump\t// in\n    tag_298:\n        /* \"#utility.yul\":15810:15847   */\n      swap2\n      pop\n        /* \"#utility.yul\":15880:15883   */\n      dup3\n        /* \"#utility.yul\":15877:15878   */\n      0x02\n        /* \"#utility.yul\":15873:15884   */\n      mul\n        /* \"#utility.yul\":15867:15871   */\n      dup3\n        /* \"#utility.yul\":15864:15885   */\n      or\n        /* \"#utility.yul\":15856:15885   */\n      swap1\n      pop\n        /* \"#utility.yul\":15596:15891   */\n      swap3\n      swap2\n      pop\n      pop\n      jump\t// out\n        /* \"#utility.yul\":15896:17291   */\n    tag_60:\n        /* \"#utility.yul\":16013:16050   */\n      tag_300\n        /* \"#utility.yul\":16046:16049   */\n      dup3\n        /* \"#utility.yul\":16013:16050   */\n      tag_74\n      jump\t// in\n    tag_300:\n        /* \"#utility.yul\":16115:16133   */\n      0xffffffffffffffff\n        /* \"#utility.yul\":16107:16113   */\n      dup2\n        /* \"#utility.yul\":16104:16134   */\n      gt\n        /* \"#utility.yul\":16101:16157   */\n      iszero\n      tag_301\n      jumpi\n        /* \"#utility.yul\":16137:16155   */\n      tag_302\n      tag_87\n      jump\t// in\n    tag_302:\n        /* \"#utility.yul\":16101:16157   */\n    tag_301:\n        /* \"#utility.yul\":16181:16219   */\n      tag_303\n        /* \"#utility.yul\":16213:16217   */\n      dup3\n        /* \"#utility.yul\":16207:16218   */\n      sload\n        /* \"#utility.yul\":16181:16219   */\n      tag_34\n      jump\t// in\n    tag_303:\n        /* \"#utility.yul\":16266:16333   */\n      tag_304\n        /* \"#utility.yul\":16326:16332   */\n      dup3\n        /* \"#utility.yul\":16318:16324   */\n      dup3\n        /* \"#utility.yul\":16312:16316   */\n      dup6\n        /* \"#utility.yul\":16266:16333   */\n      tag_125\n      jump\t// in\n    tag_304:\n        /* \"#utility.yul\":16360:16361   */\n      0x00\n        /* \"#utility.yul\":16384:16388   */\n      0x20\n        /* \"#utility.yul\":16371:16388   */\n      swap1\n      pop\n        /* \"#utility.yul\":16416:16418   */\n      0x1f\n        /* \"#utility.yul\":16408:16414   */\n      dup4\n        /* \"#utility.yul\":16405:16419   */\n      gt\n        /* \"#utility.yul\":16433:16434   */\n      0x01\n        /* \"#utility.yul\":16428:17046   */\n      dup2\n      eq\n      tag_306\n      jumpi\n        /* \"#utility.yul\":17090:17091   */\n      0x00\n        /* \"#utility.yul\":17107:17113   */\n      dup5\n        /* \"#utility.yul\":17104:17181   */\n      iszero\n      tag_307\n      jumpi\n        /* \"#utility.yul\":17156:17165   */\n      dup3\n        /* \"#utility.yul\":17151:17154   */\n      dup8\n        /* \"#utility.yul\":17147:17166   */\n      add\n        /* \"#utility.yul\":17141:17167   */\n      mload\n        /* \"#utility.yul\":17132:17167   */\n      swap1\n      pop\n        /* \"#utility.yul\":17104:17181   */\n    tag_307:\n        /* \"#utility.yul\":17207:17274   */\n      tag_308\n        /* \"#utility.yul\":17267:17273   */\n      dup6\n        /* \"#utility.yul\":17260:17265   */\n      dup3\n        /* \"#utility.yul\":17207:17274   */\n      tag_128\n      jump\t// in\n    tag_308:\n        /* \"#utility.yul\":17201:17205   */\n      dup7\n        /* \"#utility.yul\":17194:17275   */\n      sstore\n        /* \"#utility.yul\":17063:17285   */\n      pop\n        /* \"#utility.yul\":16398:17285   */\n      jump(tag_305)\n        /* \"#utility.yul\":16428:17046   */\n    tag_306:\n        /* \"#utility.yul\":16480:16484   */\n      0x1f\n        /* \"#utility.yul\":16476:16485   */\n      not\n        /* \"#utility.yul\":16468:16474   */\n      dup5\n        /* \"#utility.yul\":16464:16486   */\n      and\n        /* \"#utility.yul\":16514:16551   */\n      tag_309\n        /* \"#utility.yul\":16546:16550   */\n      dup7\n        /* \"#utility.yul\":16514:16551   */\n      tag_114\n      jump\t// in\n    tag_309:\n        /* \"#utility.yul\":16573:16574   */\n      0x00\n        /* \"#utility.yul\":16587:16795   */\n    tag_310:\n        /* \"#utility.yul\":16601:16608   */\n      dup3\n        /* \"#utility.yul\":16598:16599   */\n      dup2\n        /* \"#utility.yul\":16595:16609   */\n      lt\n        /* \"#utility.yul\":16587:16795   */\n      iszero\n      tag_312\n      jumpi\n        /* \"#utility.yul\":16680:16689   */\n      dup5\n        /* \"#utility.yul\":16675:16678   */\n      dup10\n        /* \"#utility.yul\":16671:16690   */\n      add\n        /* \"#utility.yul\":16665:16691   */\n      mload\n        /* \"#utility.yul\":16657:16663   */\n      dup3\n        /* \"#utility.yul\":16650:16692   */\n      sstore\n        /* \"#utility.yul\":16731:16732   */\n      0x01\n        /* \"#utility.yul\":16723:16729   */\n      dup3\n        /* \"#utility.yul\":16719:16733   */\n      add\n        /* \"#utility.yul\":16709:16733   */\n      swap2\n      pop\n        /* \"#utility.yul\":16778:16780   */\n      0x20\n        /* \"#utility.yul\":16767:16776   */\n      dup6\n        /* \"#utility.yul\":16763:16781   */\n      add\n        /* \"#utility.yul\":16750:16781   */\n      swap5\n      pop\n        /* \"#utility.yul\":16624:16628   */\n      0x20\n        /* \"#utility.yul\":16621:16622   */\n      dup2\n        /* \"#utility.yul\":16617:16629   */\n      add\n        /* \"#utility.yul\":16612:16629   */\n      swap1\n      pop\n        /* \"#utility.yul\":16587:16795   */\n      jump(tag_310)\n    tag_312:\n        /* \"#utility.yul\":16823:16829   */\n      dup7\n        /* \"#utility.yul\":16814:16821   */\n      dup4\n        /* \"#utility.yul\":16811:16830   */\n      lt\n        /* \"#utility.yul\":16808:16987   */\n      iszero\n      tag_313\n      jumpi\n        /* \"#utility.yul\":16881:16890   */\n      dup5\n        /* \"#utility.yul\":16876:16879   */\n      dup10\n        /* \"#utility.yul\":16872:16891   */\n      add\n        /* \"#utility.yul\":16866:16892   */\n      mload\n        /* \"#utility.yul\":16924:16972   */\n      tag_314\n        /* \"#utility.yul\":16966:16970   */\n      0x1f\n        /* \"#utility.yul\":16958:16964   */\n      dup10\n        /* \"#utility.yul\":16954:16971   */\n      and\n        /* \"#utility.yul\":16943:16952   */\n      dup3\n        /* \"#utility.yul\":16924:16972   */\n      tag_127\n      jump\t// in\n    tag_314:\n        /* \"#utility.yul\":16916:16922   */\n      dup4\n        /* \"#utility.yul\":16909:16973   */\n      sstore\n        /* \"#utility.yul\":16831:16987   */\n      pop\n        /* \"#utility.yul\":16808:16987   */\n    tag_313:\n        /* \"#utility.yul\":17033:17034   */\n      0x01\n        /* \"#utility.yul\":17029:17030   */\n      0x02\n        /* \"#utility.yul\":17021:17027   */\n      dup9\n        /* \"#utility.yul\":17017:17031   */\n      mul\n        /* \"#utility.yul\":17013:17035   */\n      add\n        /* \"#utility.yul\":17007:17011   */\n      dup9\n        /* \"#utility.yul\":17000:17036   */\n      sstore\n        /* \"#utility.yul\":16435:17046   */\n      pop\n      pop\n      pop\n        /* \"#utility.yul\":16398:17285   */\n    tag_305:\n      pop\n        /* \"#utility.yul\":15988:17291   */\n      pop\n      pop\n      pop\n        /* \"#utility.yul\":15896:17291   */\n      pop\n      pop\n      jump\t// out\n        /* \"#utility.yul\":17297:17477   */\n    tag_67:\n        /* \"#utility.yul\":17345:17422   */\n      0x4e487b7100000000000000000000000000000000000000000000000000000000\n        /* \"#utility.yul\":17342:17343   */\n      0x00\n        /* \"#utility.yul\":17335:17423   */\n      mstore\n        /* \"#utility.yul\":17442:17446   */\n      0x32\n        /* \"#utility.yul\":17439:17440   */\n      0x04\n        /* \"#utility.yul\":17432:17447   */\n      mstore\n        /* \"#utility.yul\":17466:17470   */\n      0x24\n        /* \"#utility.yul\":17463:17464   */\n      0x00\n        /* \"#utility.yul\":17456:17471   */\n      revert\n\n    auxdata: 0xa2646970667358221220a479dad85a92cd0ca4d165e8d3aa66e02044999acc8b3d4b187228181edf6b8264736f6c63430008160033\n}\n",
				"bytecode": {
					"linkReferences": {},
					"object": "608060405234801561000f575f80fd5b50335f806101000a81548173ffffffffffffffffffffffffffffffffffffffff021916908373ffffffffffffffffffffffffffffffffffffffff160217905550610d168061005c5f395ff3fe608060405234801561000f575f80fd5b5060043610610055575f3560e01c80631d7b90e014610059578063323082d714610077578063805265e5146100935780638da5cb5b146100c3578063ee34c533146100e1575b5f80fd5b6100616100fd565b60405161006e919061051c565b60405180910390f35b610091600480360381019061008c9190610679565b6101d1565b005b6100ad60048036038101906100a89190610679565b6102a1565b6040516100ba91906106d8565b60405180910390f35b6100cb6102c8565b6040516100d89190610730565b60405180910390f35b6100fb60048036038101906100f69190610773565b6102eb565b005b60606003805480602002602001604051908101604052809291908181526020015f905b828210156101c8578382905f5260205f2001805461013d90610828565b80601f016020809104026020016040519081016040528092919081815260200182805461016990610828565b80156101b45780601f1061018b576101008083540402835291602001916101b4565b820191905f5260205f20905b81548152906001019060200180831161019757829003601f168201915b505050505081526020019060010190610120565b50505050905090565b5f336040516020016101e3919061089d565b6040516020818303038152906040528051906020012090506102048161036f565b15610244576040517f08c379a000000000000000000000000000000000000000000000000000000000815260040161023b90610911565b60405180910390fd5b600481908060018154018082558091505060019003905f5260205f20015f909190919091505560028260405161027a9190610969565b90815260200160405180910390205f815480929190610298906109ac565b91905055505050565b5f6002826040516102b29190610969565b9081526020016040518091039020549050919050565b5f8054906101000a900473ffffffffffffffffffffffffffffffffffffffff1681565b82828260405160200161030093929190610a13565b604051602081830303815290604052805190602001206001846040516103269190610969565b908152602001604051809103902081905550600383908060018154018082558091505060019003905f5260205f20015f9091909190915090816103699190610be4565b50505050565b5f805f90505f5b6004805490508210801561038d57505f1515811515145b156103cd57600482815481106103a6576103a5610cb3565b5b905f5260205f20015484036103ba57600190505b81806103c5906109ac565b925050610376565b8092505050919050565b5f81519050919050565b5f82825260208201905092915050565b5f819050602082019050919050565b5f81519050919050565b5f82825260208201905092915050565b5f5b8381101561043757808201518184015260208101905061041c565b5f8484015250505050565b5f601f19601f8301169050919050565b5f61045c82610400565b610466818561040a565b935061047681856020860161041a565b61047f81610442565b840191505092915050565b5f6104958383610452565b905092915050565b5f602082019050919050565b5f6104b3826103d7565b6104bd81856103e1565b9350836020820285016104cf856103f1565b805f5b8581101561050a57848403895281516104eb858261048a565b94506104f68361049d565b925060208a019950506001810190506104d2565b50829750879550505050505092915050565b5f6020820190508181035f83015261053481846104a9565b905092915050565b5f604051905090565b5f80fd5b5f80fd5b5f80fd5b5f80fd5b7f4e487b71000000000000000000000000000000000000000000000000000000005f52604160045260245ffd5b61058b82610442565b810181811067ffffffffffffffff821117156105aa576105a9610555565b5b80604052505050565b5f6105bc61053c565b90506105c88282610582565b919050565b5f67ffffffffffffffff8211156105e7576105e6610555565b5b6105f082610442565b9050602081019050919050565b828183375f83830152505050565b5f61061d610618846105cd565b6105b3565b90508281526020810184848401111561063957610638610551565b5b6106448482856105fd565b509392505050565b5f82601f8301126106605761065f61054d565b5b813561067084826020860161060b565b91505092915050565b5f6020828403121561068e5761068d610545565b5b5f82013567ffffffffffffffff8111156106ab576106aa610549565b5b6106b78482850161064c565b91505092915050565b5f819050919050565b6106d2816106c0565b82525050565b5f6020820190506106eb5f8301846106c9565b92915050565b5f73ffffffffffffffffffffffffffffffffffffffff82169050919050565b5f61071a826106f1565b9050919050565b61072a81610710565b82525050565b5f6020820190506107435f830184610721565b92915050565b610752816106c0565b811461075c575f80fd5b50565b5f8135905061076d81610749565b92915050565b5f805f6060848603121561078a57610789610545565b5b5f84013567ffffffffffffffff8111156107a7576107a6610549565b5b6107b38682870161064c565b93505060206107c48682870161075f565b925050604084013567ffffffffffffffff8111156107e5576107e4610549565b5b6107f18682870161064c565b9150509250925092565b7f4e487b71000000000000000000000000000000000000000000000000000000005f52602260045260245ffd5b5f600282049050600182168061083f57607f821691505b602082108103610852576108516107fb565b5b50919050565b5f8160601b9050919050565b5f61086e82610858565b9050919050565b5f61087f82610864565b9050919050565b61089761089282610710565b610875565b82525050565b5f6108a88284610886565b60148201915081905092915050565b5f82825260208201905092915050565b7f416c726561647920766f746564210000000000000000000000000000000000005f82015250565b5f6108fb600e836108b7565b9150610906826108c7565b602082019050919050565b5f6020820190508181035f830152610928816108ef565b9050919050565b5f81905092915050565b5f61094382610400565b61094d818561092f565b935061095d81856020860161041a565b80840191505092915050565b5f6109748284610939565b915081905092915050565b7f4e487b71000000000000000000000000000000000000000000000000000000005f52601160045260245ffd5b5f6109b6826106c0565b91507fffffffffffffffffffffffffffffffffffffffffffffffffffffffffffffffff82036109e8576109e761097f565b5b600182019050919050565b5f819050919050565b610a0d610a08826106c0565b6109f3565b82525050565b5f610a1e8286610939565b9150610a2a82856109fc565b602082019150610a3a8284610939565b9150819050949350505050565b5f819050815f5260205f209050919050565b5f6020601f8301049050919050565b5f82821b905092915050565b5f60088302610aa37fffffffffffffffffffffffffffffffffffffffffffffffffffffffffffffffff82610a68565b610aad8683610a68565b95508019841693508086168417925050509392505050565b5f819050919050565b5f610ae8610ae3610ade846106c0565b610ac5565b6106c0565b9050919050565b5f819050919050565b610b0183610ace565b610b15610b0d82610aef565b848454610a74565b825550505050565b5f90565b610b29610b1d565b610b34818484610af8565b505050565b5b81811015610b5757610b4c5f82610b21565b600181019050610b3a565b5050565b601f821115610b9c57610b6d81610a47565b610b7684610a59565b81016020851015610b85578190505b610b99610b9185610a59565b830182610b39565b50505b505050565b5f82821c905092915050565b5f610bbc5f1984600802610ba1565b1980831691505092915050565b5f610bd48383610bad565b9150826002028217905092915050565b610bed82610400565b67ffffffffffffffff811115610c0657610c05610555565b5b610c108254610828565b610c1b828285610b5b565b5f60209050601f831160018114610c4c575f8415610c3a578287015190505b610c448582610bc9565b865550610cab565b601f198416610c5a86610a47565b5f5b82811015610c8157848901518255600182019150602085019450602081019050610c5c565b86831015610c9e5784890151610c9a601f891682610bad565b8355505b6001600288020188555050505b505050505050565b7f4e487b71000000000000000000000000000000000000000000000000000000005f52603260045260245ffdfea2646970667358221220a479dad85a92cd0ca4d165e8d3aa66e02044999acc8b3d4b187228181edf6b8264736f6c63430008160033",
					"opcodes": "PUSH1 0x80 PUSH1 0x40 MSTORE CALLVALUE DUP1 ISZERO PUSH2 0xF JUMPI PUSH0 DUP1 REVERT JUMPDEST POP CALLER PUSH0 DUP1 PUSH2 0x100 EXP DUP2 SLOAD DUP2 PUSH20 0xFFFFFFFFFFFFFFFFFFFFFFFFFFFFFFFFFFFFFFFF MUL NOT AND SWAP1 DUP4 PUSH20 0xFFFFFFFFFFFFFFFFFFFFFFFFFFFFFFFFFFFFFFFF AND MUL OR SWAP1 SSTORE POP PUSH2 0xD16 DUP1 PUSH2 0x5C PUSH0 CODECOPY PUSH0 RETURN INVALID PUSH1 0x80 PUSH1 0x40 MSTORE CALLVALUE DUP1 ISZERO PUSH2 0xF JUMPI PUSH0 DUP1 REVERT JUMPDEST POP PUSH1 0x4 CALLDATASIZE LT PUSH2 0x55 JUMPI PUSH0 CALLDATALOAD PUSH1 0xE0 SHR DUP1 PUSH4 0x1D7B90E0 EQ PUSH2 0x59 JUMPI DUP1 PUSH4 0x323082D7 EQ PUSH2 0x77 JUMPI DUP1 PUSH4 0x805265E5 EQ PUSH2 0x93 JUMPI DUP1 PUSH4 0x8DA5CB5B EQ PUSH2 0xC3 JUMPI DUP1 PUSH4 0xEE34C533 EQ PUSH2 0xE1 JUMPI JUMPDEST PUSH0 DUP1 REVERT JUMPDEST PUSH2 0x61 PUSH2 0xFD JUMP JUMPDEST PUSH1 0x40 MLOAD PUSH2 0x6E SWAP2 SWAP1 PUSH2 0x51C JUMP JUMPDEST PUSH1 0x40 MLOAD DUP1 SWAP2 SUB SWAP1 RETURN JUMPDEST PUSH2 0x91 PUSH1 0x4 DUP1 CALLDATASIZE SUB DUP2 ADD SWAP1 PUSH2 0x8C SWAP2 SWAP1 PUSH2 0x679 JUMP JUMPDEST PUSH2 0x1D1 JUMP JUMPDEST STOP JUMPDEST PUSH2 0xAD PUSH1 0x4 DUP1 CALLDATASIZE SUB DUP2 ADD SWAP1 PUSH2 0xA8 SWAP2 SWAP1 PUSH2 0x679 JUMP JUMPDEST PUSH2 0x2A1 JUMP JUMPDEST PUSH1 0x40 MLOAD PUSH2 0xBA SWAP2 SWAP1 PUSH2 0x6D8 JUMP JUMPDEST PUSH1 0x40 MLOAD DUP1 SWAP2 SUB SWAP1 RETURN JUMPDEST PUSH2 0xCB PUSH2 0x2C8 JUMP JUMPDEST PUSH1 0x40 MLOAD PUSH2 0xD8 SWAP2 SWAP1 PUSH2 0x730 JUMP JUMPDEST PUSH1 0x40 MLOAD DUP1 SWAP2 SUB SWAP1 RETURN JUMPDEST PUSH2 0xFB PUSH1 0x4 DUP1 CALLDATASIZE SUB DUP2 ADD SWAP1 PUSH2 0xF6 SWAP2 SWAP1 PUSH2 0x773 JUMP JUMPDEST PUSH2 0x2EB JUMP JUMPDEST STOP JUMPDEST PUSH1 0x60 PUSH1 0x3 DUP1 SLOAD DUP1 PUSH1 0x20 MUL PUSH1 0x20 ADD PUSH1 0x40 MLOAD SWAP1 DUP2 ADD PUSH1 0x40 MSTORE DUP1 SWAP3 SWAP2 SWAP1 DUP2 DUP2 MSTORE PUSH1 0x20 ADD PUSH0 SWAP1 JUMPDEST DUP3 DUP3 LT ISZERO PUSH2 0x1C8 JUMPI DUP4 DUP3 SWAP1 PUSH0 MSTORE PUSH1 0x20 PUSH0 KECCAK256 ADD DUP1 SLOAD PUSH2 0x13D SWAP1 PUSH2 0x828 JUMP JUMPDEST DUP1 PUSH1 0x1F ADD PUSH1 0x20 DUP1 SWAP2 DIV MUL PUSH1 0x20 ADD PUSH1 0x40 MLOAD SWAP1 DUP2 ADD PUSH1 0x40 MSTORE DUP1 SWAP3 SWAP2 SWAP1 DUP2 DUP2 MSTORE PUSH1 0x20 ADD DUP3 DUP1 SLOAD PUSH2 0x169 SWAP1 PUSH2 0x828 JUMP JUMPDEST DUP1 ISZERO PUSH2 0x1B4 JUMPI DUP1 PUSH1 0x1F LT PUSH2 0x18B JUMPI PUSH2 0x100 DUP1 DUP4 SLOAD DIV MUL DUP4 MSTORE SWAP2 PUSH1 0x20 ADD SWAP2 PUSH2 0x1B4 JUMP JUMPDEST DUP3 ADD SWAP2 SWAP1 PUSH0 MSTORE PUSH1 0x20 PUSH0 KECCAK256 SWAP1 JUMPDEST DUP2 SLOAD DUP2 MSTORE SWAP1 PUSH1 0x1 ADD SWAP1 PUSH1 0x20 ADD DUP1 DUP4 GT PUSH2 0x197 JUMPI DUP3 SWAP1 SUB PUSH1 0x1F AND DUP3 ADD SWAP2 JUMPDEST POP POP POP POP POP DUP2 MSTORE PUSH1 0x20 ADD SWAP1 PUSH1 0x1 ADD SWAP1 PUSH2 0x120 JUMP JUMPDEST POP POP POP POP SWAP1 POP SWAP1 JUMP JUMPDEST PUSH0 CALLER PUSH1 0x40 MLOAD PUSH1 0x20 ADD PUSH2 0x1E3 SWAP2 SWAP1 PUSH2 0x89D JUMP JUMPDEST PUSH1 0x40 MLOAD PUSH1 0x20 DUP2 DUP4 SUB SUB DUP2 MSTORE SWAP1 PUSH1 0x40 MSTORE DUP1 MLOAD SWAP1 PUSH1 0x20 ADD KECCAK256 SWAP1 POP PUSH2 0x204 DUP2 PUSH2 0x36F JUMP JUMPDEST ISZERO PUSH2 0x244 JUMPI PUSH1 0x40 MLOAD PUSH32 0x8C379A000000000000000000000000000000000000000000000000000000000 DUP2 MSTORE PUSH1 0x4 ADD PUSH2 0x23B SWAP1 PUSH2 0x911 JUMP JUMPDEST PUSH1 0x40 MLOAD DUP1 SWAP2 SUB SWAP1 REVERT JUMPDEST PUSH1 0x4 DUP2 SWAP1 DUP1 PUSH1 0x1 DUP2 SLOAD ADD DUP1 DUP3 SSTORE DUP1 SWAP2 POP POP PUSH1 0x1 SWAP1 SUB SWAP1 PUSH0 MSTORE PUSH1 0x20 PUSH0 KECCAK256 ADD PUSH0 SWAP1 SWAP2 SWAP1 SWAP2 SWAP1 SWAP2 POP SSTORE PUSH1 0x2 DUP3 PUSH1 0x40 MLOAD PUSH2 0x27A SWAP2 SWAP1 PUSH2 0x969 JUMP JUMPDEST SWAP1 DUP2 MSTORE PUSH1 0x20 ADD PUSH1 0x40 MLOAD DUP1 SWAP2 SUB SWAP1 KECCAK256 PUSH0 DUP2 SLOAD DUP1 SWAP3 SWAP2 SWAP1 PUSH2 0x298 SWAP1 PUSH2 0x9AC JUMP JUMPDEST SWAP2 SWAP1 POP SSTORE POP POP POP JUMP JUMPDEST PUSH0 PUSH1 0x2 DUP3 PUSH1 0x40 MLOAD PUSH2 0x2B2 SWAP2 SWAP1 PUSH2 0x969 JUMP JUMPDEST SWAP1 DUP2 MSTORE PUSH1 0x20 ADD PUSH1 0x40 MLOAD DUP1 SWAP2 SUB SWAP1 KECCAK256 SLOAD SWAP1 POP SWAP2 SWAP1 POP JUMP JUMPDEST PUSH0 DUP1 SLOAD SWAP1 PUSH2 0x100 EXP SWAP1 DIV PUSH20 0xFFFFFFFFFFFFFFFFFFFFFFFFFFFFFFFFFFFFFFFF AND DUP2 JUMP JUMPDEST DUP3 DUP3 DUP3 PUSH1 0x40 MLOAD PUSH1 0x20 ADD PUSH2 0x300 SWAP4 SWAP3 SWAP2 SWAP1 PUSH2 0xA13 JUMP JUMPDEST PUSH1 0x40 MLOAD PUSH1 0x20 DUP2 DUP4 SUB SUB DUP2 MSTORE SWAP1 PUSH1 0x40 MSTORE DUP1 MLOAD SWAP1 PUSH1 0x20 ADD KECCAK256 PUSH1 0x1 DUP5 PUSH1 0x40 MLOAD PUSH2 0x326 SWAP2 SWAP1 PUSH2 0x969 JUMP JUMPDEST SWAP1 DUP2 MSTORE PUSH1 0x20 ADD PUSH1 0x40 MLOAD DUP1 SWAP2 SUB SWAP1 KECCAK256 DUP2 SWAP1 SSTORE POP PUSH1 0x3 DUP4 SWAP1 DUP1 PUSH1 0x1 DUP2 SLOAD ADD DUP1 DUP3 SSTORE DUP1 SWAP2 POP POP PUSH1 0x1 SWAP1 SUB SWAP1 PUSH0 MSTORE PUSH1 0x20 PUSH0 KECCAK256 ADD PUSH0 SWAP1 SWAP2 SWAP1 SWAP2 SWAP1 SWAP2 POP SWAP1 DUP2 PUSH2 0x369 SWAP2 SWAP1 PUSH2 0xBE4 JUMP JUMPDEST POP POP POP POP JUMP JUMPDEST PUSH0 DUP1 PUSH0 SWAP1 POP PUSH0 JUMPDEST PUSH1 0x4 DUP1 SLOAD SWAP1 POP DUP3 LT DUP1 ISZERO PUSH2 0x38D JUMPI POP PUSH0 ISZERO ISZERO DUP2 ISZERO ISZERO EQ JUMPDEST ISZERO PUSH2 0x3CD JUMPI PUSH1 0x4 DUP3 DUP2 SLOAD DUP2 LT PUSH2 0x3A6 JUMPI PUSH2 0x3A5 PUSH2 0xCB3 JUMP JUMPDEST JUMPDEST SWAP1 PUSH0 MSTORE PUSH1 0x20 PUSH0 KECCAK256 ADD SLOAD DUP5 SUB PUSH2 0x3BA JUMPI PUSH1 0x1 SWAP1 POP JUMPDEST DUP2 DUP1 PUSH2 0x3C5 SWAP1 PUSH2 0x9AC JUMP JUMPDEST SWAP3 POP POP PUSH2 0x376 JUMP JUMPDEST DUP1 SWAP3 POP POP POP SWAP2 SWAP1 POP JUMP JUMPDEST PUSH0 DUP2 MLOAD SWAP1 POP SWAP2 SWAP1 POP JUMP JUMPDEST PUSH0 DUP3 DUP3 MSTORE PUSH1 0x20 DUP3 ADD SWAP1 POP SWAP3 SWAP2 POP POP JUMP JUMPDEST PUSH0 DUP2 SWAP1 POP PUSH1 0x20 DUP3 ADD SWAP1 POP SWAP2 SWAP1 POP JUMP JUMPDEST PUSH0 DUP2 MLOAD SWAP1 POP SWAP2 SWAP1 POP JUMP JUMPDEST PUSH0 DUP3 DUP3 MSTORE PUSH1 0x20 DUP3 ADD SWAP1 POP SWAP3 SWAP2 POP POP JUMP JUMPDEST PUSH0 JUMPDEST DUP4 DUP2 LT ISZERO PUSH2 0x437 JUMPI DUP1 DUP3 ADD MLOAD DUP2 DUP5 ADD MSTORE PUSH1 0x20 DUP2 ADD SWAP1 POP PUSH2 0x41C JUMP JUMPDEST PUSH0 DUP5 DUP5 ADD MSTORE POP POP POP POP JUMP JUMPDEST PUSH0 PUSH1 0x1F NOT PUSH1 0x1F DUP4 ADD AND SWAP1 POP SWAP2 SWAP1 POP JUMP JUMPDEST PUSH0 PUSH2 0x45C DUP3 PUSH2 0x400 JUMP JUMPDEST PUSH2 0x466 DUP2 DUP6 PUSH2 0x40A JUMP JUMPDEST SWAP4 POP PUSH2 0x476 DUP2 DUP6 PUSH1 0x20 DUP7 ADD PUSH2 0x41A JUMP JUMPDEST PUSH2 0x47F DUP2 PUSH2 0x442 JUMP JUMPDEST DUP5 ADD SWAP2 POP POP SWAP3 SWAP2 POP POP JUMP JUMPDEST PUSH0 PUSH2 0x495 DUP4 DUP4 PUSH2 0x452 JUMP JUMPDEST SWAP1 POP SWAP3 SWAP2 POP POP JUMP JUMPDEST PUSH0 PUSH1 0x20 DUP3 ADD SWAP1 POP SWAP2 SWAP1 POP JUMP JUMPDEST PUSH0 PUSH2 0x4B3 DUP3 PUSH2 0x3D7 JUMP JUMPDEST PUSH2 0x4BD DUP2 DUP6 PUSH2 0x3E1 JUMP JUMPDEST SWAP4 POP DUP4 PUSH1 0x20 DUP3 MUL DUP6 ADD PUSH2 0x4CF DUP6 PUSH2 0x3F1 JUMP JUMPDEST DUP1 PUSH0 JUMPDEST DUP6 DUP2 LT ISZERO PUSH2 0x50A JUMPI DUP5 DUP5 SUB DUP10 MSTORE DUP2 MLOAD PUSH2 0x4EB DUP6 DUP3 PUSH2 0x48A JUMP JUMPDEST SWAP5 POP PUSH2 0x4F6 DUP4 PUSH2 0x49D JUMP JUMPDEST SWAP3 POP PUSH1 0x20 DUP11 ADD SWAP10 POP POP PUSH1 0x1 DUP2 ADD SWAP1 POP PUSH2 0x4D2 JUMP JUMPDEST POP DUP3 SWAP8 POP DUP8 SWAP6 POP POP POP POP POP POP SWAP3 SWAP2 POP POP JUMP JUMPDEST PUSH0 PUSH1 0x20 DUP3 ADD SWAP1 POP DUP2 DUP2 SUB PUSH0 DUP4 ADD MSTORE PUSH2 0x534 DUP2 DUP5 PUSH2 0x4A9 JUMP JUMPDEST SWAP1 POP SWAP3 SWAP2 POP POP JUMP JUMPDEST PUSH0 PUSH1 0x40 MLOAD SWAP1 POP SWAP1 JUMP JUMPDEST PUSH0 DUP1 REVERT JUMPDEST PUSH0 DUP1 REVERT JUMPDEST PUSH0 DUP1 REVERT JUMPDEST PUSH0 DUP1 REVERT JUMPDEST PUSH32 0x4E487B7100000000000000000000000000000000000000000000000000000000 PUSH0 MSTORE PUSH1 0x41 PUSH1 0x4 MSTORE PUSH1 0x24 PUSH0 REVERT JUMPDEST PUSH2 0x58B DUP3 PUSH2 0x442 JUMP JUMPDEST DUP2 ADD DUP2 DUP2 LT PUSH8 0xFFFFFFFFFFFFFFFF DUP3 GT OR ISZERO PUSH2 0x5AA JUMPI PUSH2 0x5A9 PUSH2 0x555 JUMP JUMPDEST JUMPDEST DUP1 PUSH1 0x40 MSTORE POP POP POP JUMP JUMPDEST PUSH0 PUSH2 0x5BC PUSH2 0x53C JUMP JUMPDEST SWAP1 POP PUSH2 0x5C8 DUP3 DUP3 PUSH2 0x582 JUMP JUMPDEST SWAP2 SWAP1 POP JUMP JUMPDEST PUSH0 PUSH8 0xFFFFFFFFFFFFFFFF DUP3 GT ISZERO PUSH2 0x5E7 JUMPI PUSH2 0x5E6 PUSH2 0x555 JUMP JUMPDEST JUMPDEST PUSH2 0x5F0 DUP3 PUSH2 0x442 JUMP JUMPDEST SWAP1 POP PUSH1 0x20 DUP2 ADD SWAP1 POP SWAP2 SWAP1 POP JUMP JUMPDEST DUP3 DUP2 DUP4 CALLDATACOPY PUSH0 DUP4 DUP4 ADD MSTORE POP POP POP JUMP JUMPDEST PUSH0 PUSH2 0x61D PUSH2 0x618 DUP5 PUSH2 0x5CD JUMP JUMPDEST PUSH2 0x5B3 JUMP JUMPDEST SWAP1 POP DUP3 DUP2 MSTORE PUSH1 0x20 DUP2 ADD DUP5 DUP5 DUP5 ADD GT ISZERO PUSH2 0x639 JUMPI PUSH2 0x638 PUSH2 0x551 JUMP JUMPDEST JUMPDEST PUSH2 0x644 DUP5 DUP3 DUP6 PUSH2 0x5FD JUMP JUMPDEST POP SWAP4 SWAP3 POP POP POP JUMP JUMPDEST PUSH0 DUP3 PUSH1 0x1F DUP4 ADD SLT PUSH2 0x660 JUMPI PUSH2 0x65F PUSH2 0x54D JUMP JUMPDEST JUMPDEST DUP2 CALLDATALOAD PUSH2 0x670 DUP5 DUP3 PUSH1 0x20 DUP7 ADD PUSH2 0x60B JUMP JUMPDEST SWAP2 POP POP SWAP3 SWAP2 POP POP JUMP JUMPDEST PUSH0 PUSH1 0x20 DUP3 DUP5 SUB SLT ISZERO PUSH2 0x68E JUMPI PUSH2 0x68D PUSH2 0x545 JUMP JUMPDEST JUMPDEST PUSH0 DUP3 ADD CALLDATALOAD PUSH8 0xFFFFFFFFFFFFFFFF DUP2 GT ISZERO PUSH2 0x6AB JUMPI PUSH2 0x6AA PUSH2 0x549 JUMP JUMPDEST JUMPDEST PUSH2 0x6B7 DUP5 DUP3 DUP6 ADD PUSH2 0x64C JUMP JUMPDEST SWAP2 POP POP SWAP3 SWAP2 POP POP JUMP JUMPDEST PUSH0 DUP2 SWAP1 POP SWAP2 SWAP1 POP JUMP JUMPDEST PUSH2 0x6D2 DUP2 PUSH2 0x6C0 JUMP JUMPDEST DUP3 MSTORE POP POP JUMP JUMPDEST PUSH0 PUSH1 0x20 DUP3 ADD SWAP1 POP PUSH2 0x6EB PUSH0 DUP4 ADD DUP5 PUSH2 0x6C9 JUMP JUMPDEST SWAP3 SWAP2 POP POP JUMP JUMPDEST PUSH0 PUSH20 0xFFFFFFFFFFFFFFFFFFFFFFFFFFFFFFFFFFFFFFFF DUP3 AND SWAP1 POP SWAP2 SWAP1 POP JUMP JUMPDEST PUSH0 PUSH2 0x71A DUP3 PUSH2 0x6F1 JUMP JUMPDEST SWAP1 POP SWAP2 SWAP1 POP JUMP JUMPDEST PUSH2 0x72A DUP2 PUSH2 0x710 JUMP JUMPDEST DUP3 MSTORE POP POP JUMP JUMPDEST PUSH0 PUSH1 0x20 DUP3 ADD SWAP1 POP PUSH2 0x743 PUSH0 DUP4 ADD DUP5 PUSH2 0x721 JUMP JUMPDEST SWAP3 SWAP2 POP POP JUMP JUMPDEST PUSH2 0x752 DUP2 PUSH2 0x6C0 JUMP JUMPDEST DUP2 EQ PUSH2 0x75C JUMPI PUSH0 DUP1 REVERT JUMPDEST POP JUMP JUMPDEST PUSH0 DUP2 CALLDATALOAD SWAP1 POP PUSH2 0x76D DUP2 PUSH2 0x749 JUMP JUMPDEST SWAP3 SWAP2 POP POP JUMP JUMPDEST PUSH0 DUP1 PUSH0 PUSH1 0x60 DUP5 DUP7 SUB SLT ISZERO PUSH2 0x78A JUMPI PUSH2 0x789 PUSH2 0x545 JUMP JUMPDEST JUMPDEST PUSH0 DUP5 ADD CALLDATALOAD PUSH8 0xFFFFFFFFFFFFFFFF DUP2 GT ISZERO PUSH2 0x7A7 JUMPI PUSH2 0x7A6 PUSH2 0x549 JUMP JUMPDEST JUMPDEST PUSH2 0x7B3 DUP7 DUP3 DUP8 ADD PUSH2 0x64C JUMP JUMPDEST SWAP4 POP POP PUSH1 0x20 PUSH2 0x7C4 DUP7 DUP3 DUP8 ADD PUSH2 0x75F JUMP JUMPDEST SWAP3 POP POP PUSH1 0x40 DUP5 ADD CALLDATALOAD PUSH8 0xFFFFFFFFFFFFFFFF DUP2 GT ISZERO PUSH2 0x7E5 JUMPI PUSH2 0x7E4 PUSH2 0x549 JUMP JUMPDEST JUMPDEST PUSH2 0x7F1 DUP7 DUP3 DUP8 ADD PUSH2 0x64C JUMP JUMPDEST SWAP2 POP POP SWAP3 POP SWAP3 POP SWAP3 JUMP JUMPDEST PUSH32 0x4E487B7100000000000000000000000000000000000000000000000000000000 PUSH0 MSTORE PUSH1 0x22 PUSH1 0x4 MSTORE PUSH1 0x24 PUSH0 REVERT JUMPDEST PUSH0 PUSH1 0x2 DUP3 DIV SWAP1 POP PUSH1 0x1 DUP3 AND DUP1 PUSH2 0x83F JUMPI PUSH1 0x7F DUP3 AND SWAP2 POP JUMPDEST PUSH1 0x20 DUP3 LT DUP2 SUB PUSH2 0x852 JUMPI PUSH2 0x851 PUSH2 0x7FB JUMP JUMPDEST JUMPDEST POP SWAP2 SWAP1 POP JUMP JUMPDEST PUSH0 DUP2 PUSH1 0x60 SHL SWAP1 POP SWAP2 SWAP1 POP JUMP JUMPDEST PUSH0 PUSH2 0x86E DUP3 PUSH2 0x858 JUMP JUMPDEST SWAP1 POP SWAP2 SWAP1 POP JUMP JUMPDEST PUSH0 PUSH2 0x87F DUP3 PUSH2 0x864 JUMP JUMPDEST SWAP1 POP SWAP2 SWAP1 POP JUMP JUMPDEST PUSH2 0x897 PUSH2 0x892 DUP3 PUSH2 0x710 JUMP JUMPDEST PUSH2 0x875 JUMP JUMPDEST DUP3 MSTORE POP POP JUMP JUMPDEST PUSH0 PUSH2 0x8A8 DUP3 DUP5 PUSH2 0x886 JUMP JUMPDEST PUSH1 0x14 DUP3 ADD SWAP2 POP DUP2 SWAP1 POP SWAP3 SWAP2 POP POP JUMP JUMPDEST PUSH0 DUP3 DUP3 MSTORE PUSH1 0x20 DUP3 ADD SWAP1 POP SWAP3 SWAP2 POP POP JUMP JUMPDEST PUSH32 0x416C726561647920766F74656421000000000000000000000000000000000000 PUSH0 DUP3 ADD MSTORE POP JUMP JUMPDEST PUSH0 PUSH2 0x8FB PUSH1 0xE DUP4 PUSH2 0x8B7 JUMP JUMPDEST SWAP2 POP PUSH2 0x906 DUP3 PUSH2 0x8C7 JUMP JUMPDEST PUSH1 0x20 DUP3 ADD SWAP1 POP SWAP2 SWAP1 POP JUMP JUMPDEST PUSH0 PUSH1 0x20 DUP3 ADD SWAP1 POP DUP2 DUP2 SUB PUSH0 DUP4 ADD MSTORE PUSH2 0x928 DUP2 PUSH2 0x8EF JUMP JUMPDEST SWAP1 POP SWAP2 SWAP1 POP JUMP JUMPDEST PUSH0 DUP2 SWAP1 POP SWAP3 SWAP2 POP POP JUMP JUMPDEST PUSH0 PUSH2 0x943 DUP3 PUSH2 0x400 JUMP JUMPDEST PUSH2 0x94D DUP2 DUP6 PUSH2 0x92F JUMP JUMPDEST SWAP4 POP PUSH2 0x95D DUP2 DUP6 PUSH1 0x20 DUP7 ADD PUSH2 0x41A JUMP JUMPDEST DUP1 DUP5 ADD SWAP2 POP POP SWAP3 SWAP2 POP POP JUMP JUMPDEST PUSH0 PUSH2 0x974 DUP3 DUP5 PUSH2 0x939 JUMP JUMPDEST SWAP2 POP DUP2 SWAP1 POP SWAP3 SWAP2 POP POP JUMP JUMPDEST PUSH32 0x4E487B7100000000000000000000000000000000000000000000000000000000 PUSH0 MSTORE PUSH1 0x11 PUSH1 0x4 MSTORE PUSH1 0x24 PUSH0 REVERT JUMPDEST PUSH0 PUSH2 0x9B6 DUP3 PUSH2 0x6C0 JUMP JUMPDEST SWAP2 POP PUSH32 0xFFFFFFFFFFFFFFFFFFFFFFFFFFFFFFFFFFFFFFFFFFFFFFFFFFFFFFFFFFFFFFFF DUP3 SUB PUSH2 0x9E8 JUMPI PUSH2 0x9E7 PUSH2 0x97F JUMP JUMPDEST JUMPDEST PUSH1 0x1 DUP3 ADD SWAP1 POP SWAP2 SWAP1 POP JUMP JUMPDEST PUSH0 DUP2 SWAP1 POP SWAP2 SWAP1 POP JUMP JUMPDEST PUSH2 0xA0D PUSH2 0xA08 DUP3 PUSH2 0x6C0 JUMP JUMPDEST PUSH2 0x9F3 JUMP JUMPDEST DUP3 MSTORE POP POP JUMP JUMPDEST PUSH0 PUSH2 0xA1E DUP3 DUP7 PUSH2 0x939 JUMP JUMPDEST SWAP2 POP PUSH2 0xA2A DUP3 DUP6 PUSH2 0x9FC JUMP JUMPDEST PUSH1 0x20 DUP3 ADD SWAP2 POP PUSH2 0xA3A DUP3 DUP5 PUSH2 0x939 JUMP JUMPDEST SWAP2 POP DUP2 SWAP1 POP SWAP5 SWAP4 POP POP POP POP JUMP JUMPDEST PUSH0 DUP2 SWAP1 POP DUP2 PUSH0 MSTORE PUSH1 0x20 PUSH0 KECCAK256 SWAP1 POP SWAP2 SWAP1 POP JUMP JUMPDEST PUSH0 PUSH1 0x20 PUSH1 0x1F DUP4 ADD DIV SWAP1 POP SWAP2 SWAP1 POP JUMP JUMPDEST PUSH0 DUP3 DUP3 SHL SWAP1 POP SWAP3 SWAP2 POP POP JUMP JUMPDEST PUSH0 PUSH1 0x8 DUP4 MUL PUSH2 0xAA3 PUSH32 0xFFFFFFFFFFFFFFFFFFFFFFFFFFFFFFFFFFFFFFFFFFFFFFFFFFFFFFFFFFFFFFFF DUP3 PUSH2 0xA68 JUMP JUMPDEST PUSH2 0xAAD DUP7 DUP4 PUSH2 0xA68 JUMP JUMPDEST SWAP6 POP DUP1 NOT DUP5 AND SWAP4 POP DUP1 DUP7 AND DUP5 OR SWAP3 POP POP POP SWAP4 SWAP3 POP POP POP JUMP JUMPDEST PUSH0 DUP2 SWAP1 POP SWAP2 SWAP1 POP JUMP JUMPDEST PUSH0 PUSH2 0xAE8 PUSH2 0xAE3 PUSH2 0xADE DUP5 PUSH2 0x6C0 JUMP JUMPDEST PUSH2 0xAC5 JUMP JUMPDEST PUSH2 0x6C0 JUMP JUMPDEST SWAP1 POP SWAP2 SWAP1 POP JUMP JUMPDEST PUSH0 DUP2 SWAP1 POP SWAP2 SWAP1 POP JUMP JUMPDEST PUSH2 0xB01 DUP4 PUSH2 0xACE JUMP JUMPDEST PUSH2 0xB15 PUSH2 0xB0D DUP3 PUSH2 0xAEF JUMP JUMPDEST DUP5 DUP5 SLOAD PUSH2 0xA74 JUMP JUMPDEST DUP3 SSTORE POP POP POP POP JUMP JUMPDEST PUSH0 SWAP1 JUMP JUMPDEST PUSH2 0xB29 PUSH2 0xB1D JUMP JUMPDEST PUSH2 0xB34 DUP2 DUP5 DUP5 PUSH2 0xAF8 JUMP JUMPDEST POP POP POP JUMP JUMPDEST JUMPDEST DUP2 DUP2 LT ISZERO PUSH2 0xB57 JUMPI PUSH2 0xB4C PUSH0 DUP3 PUSH2 0xB21 JUMP JUMPDEST PUSH1 0x1 DUP2 ADD SWAP1 POP PUSH2 0xB3A JUMP JUMPDEST POP POP JUMP JUMPDEST PUSH1 0x1F DUP3 GT ISZERO PUSH2 0xB9C JUMPI PUSH2 0xB6D DUP2 PUSH2 0xA47 JUMP JUMPDEST PUSH2 0xB76 DUP5 PUSH2 0xA59 JUMP JUMPDEST DUP2 ADD PUSH1 0x20 DUP6 LT ISZERO PUSH2 0xB85 JUMPI DUP2 SWAP1 POP JUMPDEST PUSH2 0xB99 PUSH2 0xB91 DUP6 PUSH2 0xA59 JUMP JUMPDEST DUP4 ADD DUP3 PUSH2 0xB39 JUMP JUMPDEST POP POP JUMPDEST POP POP POP JUMP JUMPDEST PUSH0 DUP3 DUP3 SHR SWAP1 POP SWAP3 SWAP2 POP POP JUMP JUMPDEST PUSH0 PUSH2 0xBBC PUSH0 NOT DUP5 PUSH1 0x8 MUL PUSH2 0xBA1 JUMP JUMPDEST NOT DUP1 DUP4 AND SWAP2 POP POP SWAP3 SWAP2 POP POP JUMP JUMPDEST PUSH0 PUSH2 0xBD4 DUP4 DUP4 PUSH2 0xBAD JUMP JUMPDEST SWAP2 POP DUP3 PUSH1 0x2 MUL DUP3 OR SWAP1 POP SWAP3 SWAP2 POP POP JUMP JUMPDEST PUSH2 0xBED DUP3 PUSH2 0x400 JUMP JUMPDEST PUSH8 0xFFFFFFFFFFFFFFFF DUP2 GT ISZERO PUSH2 0xC06 JUMPI PUSH2 0xC05 PUSH2 0x555 JUMP JUMPDEST JUMPDEST PUSH2 0xC10 DUP3 SLOAD PUSH2 0x828 JUMP JUMPDEST PUSH2 0xC1B DUP3 DUP3 DUP6 PUSH2 0xB5B JUMP JUMPDEST PUSH0 PUSH1 0x20 SWAP1 POP PUSH1 0x1F DUP4 GT PUSH1 0x1 DUP2 EQ PUSH2 0xC4C JUMPI PUSH0 DUP5 ISZERO PUSH2 0xC3A JUMPI DUP3 DUP8 ADD MLOAD SWAP1 POP JUMPDEST PUSH2 0xC44 DUP6 DUP3 PUSH2 0xBC9 JUMP JUMPDEST DUP7 SSTORE POP PUSH2 0xCAB JUMP JUMPDEST PUSH1 0x1F NOT DUP5 AND PUSH2 0xC5A DUP7 PUSH2 0xA47 JUMP JUMPDEST PUSH0 JUMPDEST DUP3 DUP2 LT ISZERO PUSH2 0xC81 JUMPI DUP5 DUP10 ADD MLOAD DUP3 SSTORE PUSH1 0x1 DUP3 ADD SWAP2 POP PUSH1 0x20 DUP6 ADD SWAP5 POP PUSH1 0x20 DUP2 ADD SWAP1 POP PUSH2 0xC5C JUMP JUMPDEST DUP7 DUP4 LT ISZERO PUSH2 0xC9E JUMPI DUP5 DUP10 ADD MLOAD PUSH2 0xC9A PUSH1 0x1F DUP10 AND DUP3 PUSH2 0xBAD JUMP JUMPDEST DUP4 SSTORE POP JUMPDEST PUSH1 0x1 PUSH1 0x2 DUP9 MUL ADD DUP9 SSTORE POP POP POP JUMPDEST POP POP POP POP POP POP JUMP JUMPDEST PUSH32 0x4E487B7100000000000000000000000000000000000000000000000000000000 PUSH0 MSTORE PUSH1 0x32 PUSH1 0x4 MSTORE PUSH1 0x24 PUSH0 REVERT INVALID LOG2 PUSH5 0x6970667358 0x22 SLT KECCAK256 LOG4 PUSH26 0xDAD85A92CD0CA4D165E8D3AA66E02044999ACC8B3D4B18722818 0x1E 0xDF PUSH12 0x8264736F6C63430008160033 "
				},
				"gasEstimates": {
					"creation": {
						"codeDepositCost": "670000",
						"executionCost": "24965",
						"totalCost": "694965"
					},
					"external": {
						"Postulate(string,uint256,string)": "infinite",
						"Vote(string)": "infinite",
						"getVotes(string)": "infinite",
						"owner()": "2549",
						"showCandidates()": "infinite"
					},
					"internal": {
						"hasVoted(bytes32)": "infinite"
					}
				},
				"methodIdentifiers": {
					"Postulate(string,uint256,string)": "ee34c533",
					"Vote(string)": "323082d7",
					"getVotes(string)": "805265e5",
					"owner()": "8da5cb5b",
					"showCandidates()": "1d7b90e0"
				}
			},
			"storageLayout": {
				"storage": [
					{
						"astId": 3,
						"contract": "Votations/votations.sol:votation",
						"label": "owner",
						"offset": 0,
						"slot": "0",
						"type": "t_address"
					},
					{
						"astId": 16,
						"contract": "Votations/votations.sol:votation",
						"label": "id_Candidate",
						"offset": 0,
						"slot": "1",
						"type": "t_mapping(t_string_memory_ptr,t_bytes32)"
					},
					{
						"astId": 20,
						"contract": "Votations/votations.sol:votation",
						"label": "candidate_Votes",
						"offset": 0,
						"slot": "2",
						"type": "t_mapping(t_string_memory_ptr,t_uint256)"
					},
					{
						"astId": 23,
						"contract": "Votations/votations.sol:votation",
						"label": "candidates",
						"offset": 0,
						"slot": "3",
						"type": "t_array(t_string_storage)dyn_storage"
					},
					{
						"astId": 26,
						"contract": "Votations/votations.sol:votation",
						"label": "voters",
						"offset": 0,
						"slot": "4",
						"type": "t_array(t_bytes32)dyn_storage"
					}
				],
				"types": {
					"t_address": {
						"encoding": "inplace",
						"label": "address",
						"numberOfBytes": "20"
					},
					"t_array(t_bytes32)dyn_storage": {
						"base": "t_bytes32",
						"encoding": "dynamic_array",
						"label": "bytes32[]",
						"numberOfBytes": "32"
					},
					"t_array(t_string_storage)dyn_storage": {
						"base": "t_string_storage",
						"encoding": "dynamic_array",
						"label": "string[]",
						"numberOfBytes": "32"
					},
					"t_bytes32": {
						"encoding": "inplace",
						"label": "bytes32",
						"numberOfBytes": "32"
					},
					"t_mapping(t_string_memory_ptr,t_bytes32)": {
						"encoding": "mapping",
						"key": "t_string_memory_ptr",
						"label": "mapping(string => bytes32)",
						"numberOfBytes": "32",
						"value": "t_bytes32"
					},
					"t_mapping(t_string_memory_ptr,t_uint256)": {
						"encoding": "mapping",
						"key": "t_string_memory_ptr",
						"label": "mapping(string => uint256)",
						"numberOfBytes": "32",
						"value": "t_uint256"
					},
					"t_string_memory_ptr": {
						"encoding": "bytes",
						"label": "string",
						"numberOfBytes": "32"
					},
					"t_string_storage": {
						"encoding": "bytes",
						"label": "string",
						"numberOfBytes": "32"
					},
					"t_uint256": {
						"encoding": "inplace",
						"label": "uint256",
						"numberOfBytes": "32"
					}
				}
			},
			"userdoc": {
				"kind": "user",
				"methods": {},
				"version": 1
			}
		}
	}
}